:020000040000FA
:0400000080313428EF
:100008007E1480318B1D09280A2812280B1C0D2804
:100018000E28122888318C20803132280B1F152891
:10002800162832282100141F1A281B2824282000EB
:10003800141F1F282028242889312C218031322898
:100048002100901C2828292832282000901C2D28BF
:100058002E2832288831EC20803132287E10090081
:1000680080313628853084008830850062308600EB
:100078000130870007308831712080314430840096
:1000880000308500123088316B20803120308400A8
:10009800013085002F3088316B208031A0308400FA
:1000A80001308500203088316B2080317E1020009F
:1000B8008A318F2A2300D20052082000B60001306E
:1000C800B7008931B9218031200037082300CA00E0
:1000D800200036082300C90049084A040319752876
:1000E80076288028490852072200DD005D08FF3E77
:1000F8008600013087008101E3302000B60091308E
:10010800B7000630B8000030B900230052088D311E
:100118007B258031200036083704031D9428952854
:10012800C52823005208063E2200DD005D08230092
:10013800C80048088F313427803120003D0823004B
:10014800CC0020003C082300CB0090302100E800C0
:100158009030E90023004C082100EB0023004B08F5
:100168002100EA0089311A21803123004C0822003D
:10017800DA0023004B082200D9008D311F25803179
:10018800402AF630B6009130B700230052088B3170
:1001980060238031200036083704031DD428D52871
:1001A800E128CC302100E8009130E90089311A219A
:1001B80080318A314C228031402AEA30B6009130B1
:1001C800B700230052088B316023803120003608A5
:1001D8003704031DF028F1280A29A1302100E8007E
:1001E8009130E900200053082100EB00200052085C
:1001F8002100EA0089311A218031FB302100E80012
:100208009130E90089311A218031402AF130B60055
:100218009130B700230052088B31602380312000D1
:1002280036083704031D19291A297329D8302100E3
:10023800E8009130E90089311A2180312A30210003
:10024800E8009030E90089311A2180311F302100FF
:10025800E8009130E90089311A2180310430210009
:10026800E8009130E90089311A2180314F302100AE
:10027800E8009030E90089311A218031CB30210023
:10028800E8009030E90089311A21803100302100DE
:10029800E8009030E90089311A218031E8302100E6
:1002A800E8009030E90089311A218031503021006E
:1002B800E8009130E90089311A2180316730210046
:1002C800E8009130E90089311A218031FB302100A2
:1002D800E8009130E90089311A218031402A230051
:1002E800520886000130870061300106031D7D2910
:1002F8007E29EF29C03086000130870008302200AF
:10030800DD0000301E00DD0B8629E8302100A0004A
:100318009130A10023005208013E8D31D72580314C
:100328002200DD005D082300CF00CD01CE01DB29CE
:1003380023004F088F313427803120003D082300E7
:10034800D10020003C082300D000D11BAC29AD29E6
:10035800BC295108803A2200DD0084305D02031D6B
:10036800B829003023005002031CBB29BC29BF292F
:100378002300D001D10123004D35C03E8600013055
:1003880087005008C03F5108C13F0130CD070030F9
:10039800CE3DE8302100A0009130A10000308D3121
:1003A800D72580312200DD005D082300CF004F08EB
:1003B8000319DF29E029EF294E08803A2200DD00E1
:1003C80080305D02031DEB29043023004D02031C1D
:1003D800EE29EF299C292300520886000130870066
:1003E80076300106031DF929FA290F2ABE302100AB
:1003F800E8009130E9009130EA009130EB00893152
:100408001A218031FB302100E8009130E900893160
:100418001A218031402A5208860001308700663050
:100428000106031D182A192A2A2A39302100E80052
:100438009130E90089311A218031FB302100E80030
:100448009130E90089311A218031402A7C3021001D
:10045800E8009130E900230052082100EA00013049
:10046800EB0089311A218031FB302100E8009130FE
:10047800E90089311A21803108002100BD003008C7
:10048800C4003108C5003208C6003308C700340864
:10049800C8003508C9003608CA003708CB00C43080
:1004A800860000308700473FB800B81B5C2A5E2AE8
:1004B80001305F2A00302100B900BA013908C200B2
:1004C8003A08C3004208430403196B2A6C2A8A2A93
:1004D800C409C509C609C709C809C909CA09CB0990
:1004E800C40A031D8A2AC50A031D8A2AC60A031DCF
:1004F8008A2AC70A031D8A2AC80A031D8A2AC90A22
:10050800031D8A2ACA0A031D8A2ACB0A2000CD1B8A
:100518008E2A8F2A932AFD30CE05FF30CF054D084D
:10052800803A2100B80080303802031D9E2A01302D
:1005380020004C020318A12AA22AA82A013021006F
:10054800BE000030BF00B02A20004D082100BF00C7
:1005580020004C082100BE0020004B082100C100EB
:1005680020004A082100C00042084304031DBD2A98
:10057800BE2AC32A20004E1DC22AC32AC82AFF3019
:100588002100C007FF30C13D1F302100CC000030E2
:10059800CD002300BF013D2BFF302100CC07FF30E9
:1005A800CD3D0A30A000A101A201A301A401A5012B
:1005B800A601A7014408A8004508A9004608AA0002
:1005C8004708AB004808AC004908AD004A08AE002F
:1005D8004B08AF008531F025823121002108200029
:1005E800BA00210020082000B9008931D3218231C6
:1005F80020003908303E2100B8004C08A03E860093
:100608000130870038088100FF30BE07FF30BF3D4A
:10061800FF30C007FF30C13D0A30A000A101A20190
:10062800A301A401A501A601A7014408A800450843
:10063800A9004608AA004708AB004808AC004908CA
:10064800AD004A08AE004B08AF008331B5238231B4
:1006580021002008C4002108C5002208C60023087C
:10066800C7002408C8002508C9002608CA002708AA
:10067800CB0021004D08803AB80080303802031DB5
:10068800472B01304C02031C4A2B4B2B782B2100A3
:100698004408450446044704480449044A044B04F2
:1006A800031D572B582BD02A3F08803AB8008030BA
:1006B8003802031D612B01303E020318642B652BA1
:1006C800D02A21004108803AB80080303802031D42
:1006D8006F2B01304002031C722B732B782B2000E8
:1006E800CE18772B782BD02A210042084304031D0B
:1006F8007E2B7F2B842B20004E1D832B842BA12B3C
:10070800FF302100CC07FF30CD3D42084304031DD4
:100718008E2B8F2B942B2B30BB000030BC00982BDA
:100728002D30BB000030BC003B08B8004C08A03E90
:100738008600013087003808810021004C08A03E5F
:10074800B8003808A4004108A6004008A5003D08E4
:100758008E313D26823121002508B1002408B000E1
:1007680008002000B801A030860000308700473F0D
:10077800B600B61FC02BC12BE32B2100A009A1098D
:10078800A209A309A409A509A609A709A00A031D86
:10079800E02BA10A031DE02BA20A031DE02BA30AEC
:1007A800031DE02BA40A031DE02BA50A031DE02B63
:1007B800A60A031DE02BA70A2000B801B80AA83032
:1007C800860000308700473F2000B600B61FED2B9B
:1007D800EE2B122C2100A809A909AA09AB09AC091A
:1007E800AD09AE09AF09A80A031D0D2CA90A031DFE
:1007F8000D2CAA0A031D0D2CAB0A031D0D2CAC0AE7
:10080800031D0D2CAD0A031D0D2CAE0A031D0D2C66
:10081800AF0A01302000B6003608B8063930860025
:100828000030870008302000B60000301E00B60BEC
:100838001A2C21002008210422042304240425045E
:10084800260427040319292C2A2C8E2C2000B701F2
:10085800B70A3B2CA035A10DA20DA30DA40DA50D23
:10086800A60DA70D01302000B6003608B7072100F5
:10087800A71F3F2C402C2E2C2000B935BA0DBB0DDC
:10088800BC0DBD0DBE0DBF0DC00D210027082F02E8
:10089800031D682C26082E02031D682C25082D022E
:1008A800031D682C24082C02031D682C23082B0226
:1008B800031D682C22082A02031D682C210829021E
:1008C800031D682C20082802031C6B2C6C2C7E2C22
:1008D8002008A8022108A93B2208AA3B2308AB3B11
:1008E8002408AC3B2508AD3B2608AE3B2708AF3BA8
:1008F800200039142100A736A60CA50CA40CA30CC3
:10090800A20CA10CA00C01302000B702031D8D2CF5
:100918008E2C402C200038080319932C942CB22CD0
:10092800B909BA09BB09BC09BD09BE09BF09C00993
:10093800B90A031DB22CBA0A031DB22CBB0A031D47
:10094800B22CBC0A031DB22CBD0A031DB22CBE0A70
:10095800031DB22CBF0A031DB22CC00A200039089F
:100968002100A00020003A082100A10020003B0837
:100978002100A20020003C082100A30020003D081F
:100988002100A40020003E082100A50020003F0807
:100998002100A600200040082100A700080021002F
:1009A800DF004E0886008701403FD000413FD1005C
:1009B80050088400510885001200253A031DE52CD3
:1009C800E62CC72D4E08860087010130810741318A
:1009D8000318810A2000CA01CB01CE01CF01FF30E4
:1009E800CC00FF30CD0021004E0886008701403F33
:1009F800D000413FD1005008840051088500120002
:100A0800643A0319082D092D1A2D4E08860087010E
:100A1800403FD000413FD100500884005108850074
:100A28001200693A031D192D1A2D552D4E088600FE
:100A380087010130810741310318810A4F08860078
:100A4800870101088400850102308107003FD0003A
:100A5800013FD1005008D5005108D600890D893BC7
:100A68008909D700D800D900DA00DB00DC00550876
:100A7800B0005608B1005708B2005808B30059082A
:100A8800B4005A08B5005B08B6005C08B7005F08F8
:100A980082314122843121003108CF003008CE0054
:100AA800EF2D4E0886008701403FD000413FD1001E
:100AB80050088400510885001200733A031D652D03
:100AC800662D8F2D4E088600870101308107413140
:100AD8000318810A4F0886008701010884008501F0
:100AE80002308107003FDD00013FDE005E08200084
:100AF800C10021005D082000C00021005F08863188
:100B0800E4268431200041082100CF00200040085D
:100B18002100CE00EF2D4E0886008701403FD0000F
:100B2800413FD10050088400510885001200253A41
:100B3800031D9F2DA02DBC2D4E0886008701013076
:100B4800810741310318810A25302000B8000030A0
:100B5800B90021005F08D00050082000BA008B318E
:100B6800FB23843101302100CE000030CF00EF2D6F
:100B78004E08860087010130810741310318810A38
:100B8800CE01CF01EF2D4E0886008701403FD000EF
:100B9800413FD10050088400510885000008D20068
:100BA800D30152082000B800210053082000B900E2
:100BB80021005F08D40054082000BA008B31FB23C1
:100BC800843121004E0886008701013081074131B8
:100BD8000318810AB62D08002000B801A830860045
:100BE80000308700473FB600B61FFB2DFC2D1E2E98
:100BF8002100A809A909AA09AB09AC09AD09AE09E0
:100C0800AF09A80A031D1B2EA90A031D1B2EAA0A39
:100C1800031D1B2EAB0A031D1B2EAC0A031D1B2E26
:100C2800AD0A031D1B2EAE0A031D1B2EAF0A2000A2
:100C3800B801B80AA030860000308700473F20007E
:100C4800B600B61F282E292E482E2100A009A1097A
:100C5800A209A309A409A509A609A709A00A031DB1
:100C6800482EA10A031D482EA20A031D482EA30AD6
:100C7800031D482EA40A031D482EA50A031D482E4D
:100C8800A60A031D482EA70A2100200821042204D1
:100C9800230424042504260427040319542E552E5E
:100CA800AD2E2000B701B70A662EA035A10DA20D02
:100CB800A30DA40DA50DA60DA70D01302000B600AB
:100CC8003608B7072100A71F6A2E6B2E592E210060
:100CD80027082F02031D8A2E26082E02031D8A2E9E
:100CE80025082D02031D8A2E24082C02031D8A2E96
:100CF80023082B02031D8A2E22082A02031D8A2E8E
:100D080021082902031D8A2E20082802031C8D2E83
:100D18008E2E9E2E2008A8022108A93B2208AA3B55
:100D28002308AB3B2408AC3B2508AD3B2608AE3B6B
:100D38002708AF3BA736A60CA50CA40CA30CA20C45
:100D4800A10CA00C01302000B702031DAC2EAD2E63
:100D58006B2E200038080319B22EB32ED22E210094
:100D6800A809A909AA09AB09AC09AD09AE09AF09D7
:100D7800A80A031DD22EA90A031DD22EAA0A031DF2
:100D8800D22EAB0A031DD22EAC0A031DD22EAD0AF9
:100D9800031DD22EAE0A031DD22EAF0A2100280849
:100DA800A0002908A1002A08A2002B08A3002C08EB
:100DB800A4002D08A5002E08A6002F08A7000800EB
:100DC8002100AE006230860001308700A330840025
:100DD800003085000730A00016001A00A00BF02E86
:100DE800200041082100B000200040082100AF0089
:100DF8002F083004031D012F022F062FA330AF0048
:100E08000030B00030082000B70021002F08200073
:100E1800B6008931B9218631200037082100B40095
:100E2800200036082100B30020004D082100B20040
:100E380020004C082100B100B21B232F242F382F8B
:100E48003208803AA0003408803A2002031D2E2F71
:100E580033083102031C312F322F332F382F210052
:100E68003208B4003108B30021003408B200330856
:100E7800B10020004B082100AD0020004A082100E5
:100E8800AC0020004E18492F4A2F6D2F5E2F2030BE
:100E98002000B8000030B90021002E08A00020086A
:100EA8002000BA008B31FB23863101302100B307C3
:100EB8000030B43D21003408803AA0002D08803A63
:100EC8002002031D692F2C083302031C6C2F6D2F81
:100ED8004B2F2100AA01AB01922F21002F0884007B
:100EE800300885000008A000A10120082000B800F3
:100EF800210021082000B90021002E08A2002208A4
:100F08002000BA008B31FB23863101302100AF0766
:100F18000030B03D0130AA070030AB3D2B08803AC5
:100F2800A0003208803A2002031D9C2F31082A02B3
:100F3800031C9F2FA02F712F20004E1CA42FA52F1C
:100F4800C82FB92F20302000B8000030B900210088
:100F58002E08A00020082000BA008B31FB23863120
:100F680001302100B3070030B43D21003408803A35
:100F7800A0002D08803A2002031DC42F2C0833023C
:100F8800031CC72FC82FA62F210034082000C1003A
:100F9800210033082000C00008002100A300A1019F
:100FA800A201EA2F20082000C100C2014108B800B0
:100FB8004208B9004008C3004308BA008B31FB233C
:100FC800873101302100A1070030A23D2108230705
:100FD8002000C10041088600013087000108C200D6
:100FE80042082100A0002008031DFB2FFC2FD62F4C
:040FF80008000800E5
:1010C2008831FA208831080020003708D900360814
:1010D200D8000800640080010131890B6C280034BB
:1010E200FE0012001E00FE0B722800347830210030
:1010F200990098012200960108002000B7003708E5
:101102008831CC208831080028346E3475346C3430
:101112006C34293400342700131C90289128942819
:101122008A31B22288310800200037082200D40018
:10113200200036082200D3000800200037082200D1
:10114200D800200036082200D70008002000370807
:101152002200D600200036082200D5000800200018
:1011620037082200D200200036082200D1000800F1
:10117200200037082200D000200036082200CF00CD
:10118200080001302200AC070030AD3D0030AE3D1A
:101192000030AF3D08002000B600101ED128D22832
:1011A200CE28360823009A00080080302C009900CF
:1011B2007C309800C0309700CF3025009E05080093
:1011C20080302C009C007C309B00C0309A003F3065
:1011D20025009E05080020009010580859040319A4
:1011E200F328F428F92859088A0058080A00883197
:1011F20008002000901EFE28FF28FA28D5012300AF
:101202009D1C0429052907291D121D16190808000D
:101212002900151D0D290E29152915107108940094
:10122200700893001514192971089400700893002E
:101232000800EA302100EC006C08EF006908E100C8
:101242006808E000EF30EC006C08E20000308A3100
:10125200FC2289310800200014135708F1005608B7
:10126200F00089310921893122004F085004031905
:101272003B293C29412950088A004F080A0089313C
:10128200080020009E019D019F01F9309B009A01F8
:10129200901021009014C2302000B6000830B70030
:1012A200883165208931C03020009C0008008C31D3
:1012B2003C2489318831772089318931EF21893184
:1012C2008831E12089318831D62089318931422122
:1012D20089318A31D7228931080020003708B900C4
:1012E2003608B800B936B80CB936B80C38082C0034
:1012F2009800200036080339B8000530B835FF3EA3
:10130200031D7F2938352C0097000800200037087C
:10131200B9003608B800B936B80CB936B80C380876
:101322002C009B00200036080339B8000530B83580
:10133200FF3E031D982938352C009A000800200032
:101342003608D03EB800FF30373DB90000303902D0
:101352000A3003193802031CAF29B1290130B2291E
:101362000030BA00BB013A08B6003B08B7000800DB
:1013720020003708BA003608B900C3290130B60781
:101382000030B73D36088400370885001200031D7F
:10139200CB29CC29BF2939083602B6003A08373B97
:1013A200B700080020003A08803ABB0080303B02B8
:1013B200031DDD29013039020318E029E129EE2954
:1013C20020003909BB003A09BC00BB0A0319BC0A58
:1013D2003B08B9003C08BA00EE2908002900960132
:1013E200D8309400F0309300200014132900140820
:1013F2002000D700290013082000D600210014176E
:10140200C6302000B6000C30B7008831B9208931CF
:101412003130290095000800200036088400370882
:10142200850000083806031D172A182A192A2B2AB4
:101432003708BB003608BA00B60A0319B70A3A08D9
:1014420084003B0885001200031D282A292A0D2A40
:10145200B601B70108002000BA01BB01361C322ACE
:10146200332A372A3808BA073908BB3D0130B83564
:10147200B90D890B382A0130B736B60C890B3D2AD3
:1014820036083704031D462A472A2F2A3B08B7008D
:101492003A08B60008002000D001D1010030B600A1
:1014A200B70089316E218A3100302000B600B700C2
:1014B200893187218A31AE302100E8009030E9007D
:1014C20089311A218A31FB302100E8009130E9008C
:1014D20089311A218A3108002000BA01BA0A203063
:1014E200360637040319762A772A872A3608F73E02
:1014F200B800FF30373DB90000303902053003191A
:101502003802031C852A862A872ABA013A08B800BB
:10151200B9013808B6003908B700080089315821E6
:101522008A318B170B170B302200E1002630E000C6
:101532005D30890B9A2AE00B9A2AE10B9A2A003233
:1015420022008E140E15FB302100E8009130E900D4
:1015520089311A218A318C3181248A31AC2A803135
:10156200342820008C1CB62AB72AC02A0130C407AE
:101572000030C53D0030C63D0030C73DC82AFF30AF
:10158200C407FF30C53DFF30C63DFF30C73D2200D6
:10159200510852040319CE2ACF2AD42A52088A00AB
:1015A20051080A008A31270013100800083023006E
:1015B2009F0090309D0024309E0022309B009C01B1
:1015C20000302000B6000030B70088319E208A31FA
:1015D20000302000B6000030B7008831A7208A31E1
:1015E20000302000B6000030B700883195208A31E3
:1015F2002000D50108002100E5006108E70060082D
:10160200E6002000C801C9011A2BE630E300630896
:10161200CE006208E4006408CF0065088431D32458
:101622008A3121004E082000C80721004F082000FF
:10163200C93D210066088400670885001200031D69
:10164200232B242B062B200049082100E100200037
:1016520048082100E00008000030FB000030FA00DA
:101662000030F9000030F800701C382B392B412B68
:101672007408F8077508F93D7608FA3D7708FB3DCE
:101682000130F435F50DF60DF70D890B422B0130C3
:10169200F336F20CF10CF00C890B492B730872042F
:1016A20071047004031D562B572B352B7B08F30056
:1016B2007A08F2007908F1007808F00008002000AA
:1016C200B9006B2B0130B8003808B9070130B607F2
:1016D2000030B73D36088400370885000008B8009E
:1016E200390886000130870001083806031D7A2B6D
:1016F2007B2B842B39088600013087000108031DEB
:10170200832B842B632B390886000130870036082F
:1017120084003708850000080102B600B701031CE7
:10172200B70308002000C300C101C201A02B013091
:10173200BF003F08C3070130C1070030C23D430864
:1017420086000130870001080319A82BA92BC22BA0
:101752003E08B7003D08B600430886000130870006
:101762000108BF00C0013F08B8004008B9008A3133
:101772000D228B312000360837040319C12BC22BEE
:10178200982B4208BE004108BD0008002000C3009B
:10179200C101C201D42B0130BF003F08C307013091
:1017A200C1070030C23D43088600013087000108AE
:1017B2000319DC2BDD2BF62B3E08B7003D08B600E3
:1017C20043088600013087000108BF00C0013F08BE
:1017D200B8004008B9008A310D228B31200036084A
:1017E2003704031DF52BF62BCC2B4208BE00410813
:1017F200BD00080020003A080319002C012C062C19
:101802003A08031D052C062C0B2C380888317E2043
:101812008B313B2C3A08033E8600870116000104F7
:101822000319142C152C322C3A08033E860087012A
:10183200403FBB00413FBC003A0A86008701403F5F
:10184200BD00413FBE003E08803ABF003C08803ADE
:101852003F02031D2E2C3B083D020318312C322C73
:101862003B2C20003A0A8600870101308107413172
:101872000318810A080022008C018D018E01333089
:1018820021008C0070308D00F8308E00483023002B
:101892008E0070308D0010308C00A03024008D003E
:1018A20007308C0087308E002100951725008C01AF
:1018B2008D018E01373026008C00F0308D00FF3014
:1018C2008E003F3027008C00F0308D00FF308E00FC
:1018D200131012101114FD302000B6000730B700AB
:1018E2008831B0208C318B150F303D00A0001730AD
:1018F2003C00A40012303D009F000E309200080010
:10190200883161208C312200DE005E08DF000A305F
:101912005F0603198D2C8E2CA82C0D305F0603193F
:10192200932C942CA82C5F08DE003008313E8600F0
:10193200013087005E0881000130DE005E08B007DA
:101942001E303002031CA62CA72CA82CB001243078
:101952005F06031DAD2CAE2CC52C3008313E86002F
:10196200013087008101B001B0302100E8009130E0
:10197200E9003130EA000130EB0089311A218C3163
:10198200313080315E208C3108002200280820008E
:101992004402AE00220029082000453BAF0022008D
:1019A2002A082000463BB00022002B082000473BBB
:1019B200B1003108B5003008B4002F08B3002E087A
:1019C200B20047082200AB00200046082200AA000D
:1019D200200045082200A900200044082200A80097
:1019E20000302000A3000030A2000030A100D2305D
:1019F200A0003508F3003408F2003308F100320881
:101A0200F0000030F7000030F6000B30F500B8307F
:101A1200F4008B312D238C3173082000A70072084B
:101A2200A6007108A5007008A4008E31A4268C318E
:101A320020002108D3002008D200080022005A0802
:101A42002000D100220059082000D0005108803A1D
:101A52002200DB0080305B02031D322D01302000AA
:101A62005002031C352D362D462D20005108B7009B
:101A72005008B60089316E218D3100302000B60049
:101A8200B700893187218D31622D00302000B600E8
:101A9200B70089316E218D31200050092200DB0010
:101AA200200051092200DC00DB0A0319DC0A5B0872
:101AB2002000B60022005C082000B700893187218F
:101AC2008D3170302100E8009030E900200051088B
:101AD2002100EB00200050082100EA0089311A2180
:101AE2008D31FB302100E8009130E90089311A2163
:101AF2008D3108002000BB003B08BA003A08BE0046
:101B02003708BD003608BC000130B8020030B93BCE
:101B1200380A031D902D390A031D902D912DA02DF9
:101B2200B601B701D62D0130BA003A08BE0701301E
:101B3200BC070030BD3D0130B8020030B93B3E0861
:101B420086000130870001080319A82DA92DC82D90
:101B52003C0884003D08850012000319B12DB22D06
:101B6200C82D380839040319B72DB82DC82D3C08E3
:101B720084003D0885000008BA003E088600013056
:101B8200870001083A060319C72DC82D942D3E0877
:101B92008600013087003C0884003D08850000086B
:101BA2000102B600B701031CB70308002100A5001B
:101BB2002508031DDD2DDE2DEB2D2000540821000C
:101BC200A2002208A5002508031DE82DE92DEB2D12
:101BD20000303C2E21082000BE00210020082000F9
:101BE200BD00210025088B31C7238D3120003D081F
:101BF2002100A2002208A5072508860001308700DF
:101C02000108031D052E062E0A2E2000D4010030E5
:101C12003C2E21082000BE00210020082000BD002B
:101C2200210025088B3193238D3120003D082100AE
:101C3200A20020003E082100A30025082207A400DC
:101C420024082000D40054088600013087000108CF
:101C520003192C2E2D2E392E5408860001308700B0
:101C6200810101302100A20022082000D4073A2E6F
:101C7200D4012100250808002100AC0020004E1CE0
:101C8200432E442E4F2E21002C08A70027082000A7
:101C9200C000210024088731D1278E312100A61BE4
:101CA200532E542E592E2608AB002508AA005B2E6F
:101CB200AA01AB01A801A901712E20302000B800B1
:101CC2000030B90021002C08A70027082000BA0024
:101CD2008B31FB238E3101302100A8070030A93D52
:101CE2002908803AA7002B08803A2702031D7B2E81
:101CF2002A082802031C7E2E7F2E5E2E20004E18FC
:101D0200832E842E8F2E21002C08A7002708200066
:101D1200C000210024088731D1278E3121002408F8
:101D22002000B6000130B7008931B9218E3121007F
:101D32002A08200036072100A4002B082000373D86
:101D42002100A50008002000A901A31FA92EAA2E88
:101D5200B72EA009A109A209A309A00A0319A10A81
:101D62000319A20A0319A30AA901A90AA71FBA2ED5
:101D7200BB2ECA2EA409A509A609A709A40A0319FC
:101D8200A50A0319A60A0319A70A0130FC007C0858
:101D9200A9060030AD000030AC000030AB000030CE
:101DA200AA0023082204210420040319D92EDA2EC2
:101DB2001B2FA801A80AE82E0130A035A10DA20D03
:101DC200A30D890BDE2E0130FC007C08A807A31F9F
:101DD200EB2EEC2EDD2E0130AA35AB0DAC0DAD0D88
:101DE200890BED2E23082702031D012F220826024C
:101DF200031D012F21082502031D012F20082402A3
:101E0200031C042F052F0E2F2008A4022108A53B36
:101E12002208A63B2308A73B2A140130A336A20CB2
:101E2200A10CA00C890B0F2F0130A802031D1A2F41
:101E32001B2FEC2E290803191F2F202F2B2FAA0945
:101E4200AB09AC09AD09AA0A0319AB0A0319AC0A1A
:101E52000319AD0A2D08A3002C08A2002B08A1002B
:101E62002A08A00008002100A900A701A801A001DA
:101E7200A101412F01302000BE003E082100A90728
:101E8200A601A60A29088600013087002030010633
:101E920003194C2F4D2F642F29088600013087002B
:101EA2000108F73E2000BE00FF3003180030BF00DB
:101EB20000303F02053003193E02031C612F622FDE
:101EC200642F2100A601210026082000BE00BF01C8
:101ED2003E082100A20020003F082100A3002208A2
:101EE2002304031D752F762F3B2F832F01302100F2
:101EF200A0000030A10001302000BE003E082100F9
:101F0200A907BC2F2908860001308700010820009C
:101F1200BE00BF013F08003A0319902FBC2F3E08B4
:101F22002B3A03197C2F063A0319772FBC2F290865
:101F320086000130870028082000B700210027080A
:101F42002000B6000A30B8000030B9008A312C22D5
:101F52008F3120003708BF0001083602BE00031C83
:101F6200BF033E08303E2100A700003020003F3D65
:101F72002100A8007C2F210029088600013087005B
:101F82000108D03E2000BE00FF3003180030BF0021
:101F920000303F020A3003193E02031CD12FD32F17
:101FA2000130D42F0030C000C10140082100A4003C
:101FB200200041082100A50024082504031DE22F6A
:101FC200E32F982F20082104031DE82FE92FF82F73
:101FD20027092000BE00210028092000BF00BE0AF8
:101FE2000319BF0A3E08BC003F08BD00FF2F2808A6
:101FF2002000BD00210027082000BC00080020347A
:1020020072344E344E344E342C3467344E344E34A3
:102012004E342C3462344E344E344E342C347734B5
:102022004E344E344E3420342D34203473346534DF
:1020320074342034733470346534653464347334E6
:10204200203430342D3431343034323433340A34A1
:1020520000342034733474346134723474342C3464
:102062004E344E342034203420342D342034733412
:10207200743461347234743420346D346F34743493
:102082006F3472342C3420344E344E3420343D3488
:102092002034523450344D340A3400342034653400
:1020A2007834693474342034203420342034203499
:1020B200203420342D342034653478346934743437
:1020C200203463346F346D346D3461346E3464346F
:1020D20020346D346F34643465340A3400344D3442
:1020E2006F3474346F3472345F3453347434613403
:1020F20072347434283429343A34203454346134F8
:1021020072346734653474342034523450344D346C
:1021120020343D342034253464340A3400345334BA
:10212200743461347234743469346E3467342034F4
:102132006D346F3474346F347234203474346134D7
:102142007234673465347434203425346434203472
:10215200523450344D340A3400344D346F347434B4
:102162006F3472345F34533474346F3470342834BF
:1021720029343A3420344D346F3474346F34723429
:102182002034733474346F3470347034653464348E
:102192000A3400342034683465346C3470342034AA
:1021A2002034203420342034203420342D34203480
:1021B200733468346F347734203463346F346D345D
:1021C2006D3461346E34643473340A340034203430
:1021D200613452342C3447342C3442342C34573446
:1021E2002034203420342D34203473346534743454
:1021F200203461346C346C342034503457344D34D0
:1022020073340A34003420346734653474347234DD
:1022120070346D34203420342034203420342D3472
:102222002034723465347434753472346E347334D9
:102232002034723470346D340A34003420347334F0
:1022420074346F34703420342034203420342034F9
:10225200203420342D342034733474346F34703489
:1022620020346D346F3474346F3472340A34003471
:1022720066346C34753473346834203462347534A3
:1022820066346634653472342034723465346334AF
:10229200653469347634653464340A340034203465
:1022A2007634203420342034203420342034203436
:1022B2002034203420342D34203476346534723482
:1022C200733469346F346E340A3400342034663423
:1022D200203420342034203420342034203420345C
:1022E200203420342D34203466346C347534733405
:1022F20068340A34003455346E346B346E346F34BF
:1023020077346E34203463346F346D346D34613419
:102312006E3464343A342034253473340A3400344D
:10232200763431342E3430342E3430342034313457
:1023320031342D34303431342D34323435340034A8
:102342004D346F3474346F347234203472347034D8
:102352006D343A342034253464340A34003472340F
:1023620065346334653469347634653464343A34BC
:102372002034253473340A340034763465347234AC
:10238200733469346F346E3420343D342034253450
:1023920073340A3400344D346F3474346F3472340D
:1023A2002034733474346F3470340A340034433458
:1023B2006F346D346D3461346E34643473343A3452
:1023C2000A340034733474346134723474342C3407
:1023D2000034673465347434723470346D340034CC
:1023E200683465346C3470340034733474346F344C
:0E23F200703400340A342F343E34203400346A
:020000040001F9
:06000E00FC3FFF3E9F3F96
:00000001FF
