:020000040000FA
:1000000080313428080008007E1480318B1D0928B7
:100010000A2812280B1C0D280E2812288A31B92212
:10002000803132280B1F1528162832282100141F72
:100030001A281B2824282000141F1F2820282428C1
:100040008B317F23803132282100901C28282928D9
:1000500032282000901C2D282E2832288A31E222B6
:10006000803132287E10090080313628B230840079
:100070008A308500663086000130870007308A317B
:10008000A5228031FA01FB01C630840000308500D2
:100090001D308A319F22803120308400013085005C
:1000A00046308A319F2280317E1020008C319D2C79
:1000B0002100C1004108F2000130F3008B31AE2372
:1000C000803173082100B9007208B800380839047B
:1000D00003196B286C28752838084107AE002E08D4
:1000E000FF3E8600013087008101E330F20091304D
:1000F000F3000630F4000030F50041088F31A427EA
:10010000803172087304031D86288728AA282100DD
:100110004108063EAE002E08B70037088731482751
:10012000803179082100BB007808BA009030A30024
:100130009030A4003B08A6003A08A5008B31692343
:10014000803121003B08AB003A08AA008E31A72677
:1001500080310E2AF630F2009130F3002100410880
:100160008D310F25803172087304031DB828B9281A
:10017000C528CC302100A3009130A4008B31692325
:1001800080318C313A2480310E2AEA30F2009130ED
:10019000F300210041088D310F258031720873046E
:1001A000031DD328D428E928A1302100A3009130D1
:1001B000A4005F08A6005E08A5008B31692380318A
:1001C000FB302100A3009130A4008B3169238031E2
:1001D0000E2AF130F2009130F300210041088D31F8
:1001E0000F25803172087304031DF728F828512960
:1001F000D8302100A3009130A4008B3169238031D5
:100200002A302100A3009030A4008B316923803173
:100210001F302100A3009130A4008B31692380316D
:1002200004302100A3009130A4008B316923803178
:100230004F302100A3009030A4008B31692380311E
:10024000CB302100A3009030A4008B316923803192
:1002500000302100A3009030A4008B31692380314D
:10026000E8302100A3009030A4008B316923803155
:1002700050302100A3009130A4008B3169238031DC
:1002800067302100A3009130A4008B3169238031B5
:10029000FB302100A3009130A4008B316923803111
:1002A0000E2A2100410886000130870061300106D6
:1002B000031D5B295C29C229AF308600003087000E
:1002C0000830AE0000301E00AE0B6329E83020007D
:1002D000A7009130A80021004108013E8F314B2733
:1002E00080312100AE002E08BE00BC01BD01B02946
:1002F00021003E0887314827803179082100C0005D
:100300007808BF00C01B8529862993294008803AB8
:10031000AE0084302E02031D8F2900303F02031CE3
:100320009229932996292100BF01C00121003C3563
:10033000AF3E860087013F08C03F4008C13F013003
:10034000BC070030BD3DE8302000A7009130A80078
:1003500000308F314B2780312100AE002E08BE00C7
:100360003E080319B429B529C2293D08803AAE00D8
:1003700080302E02031DBE2904303C02031CC1291B
:10038000C229782921004108860001308700763093
:100390000106031DCC29CD29E129BE30A3009130EF
:1003A000A4009130A5009130A6008B3169238031E3
:1003B000FB302100A3009130A4008B3169238031F0
:1003C0000E2A410886000130870066300106031DB1
:1003D000EA29EB29FB293930A3009130A4008B31A5
:1003E00069238031FB302100A3009130A4008B31C0
:1003F000692380310E2A7C30A3009130A40041088B
:10040000A5000130A6008B3169238031FB3021002B
:10041000A3009130A4008B316923803108002000B3
:10042000C7003A08CE003B08CF003C08D0003D088A
:10043000D1003E08D2003F08D3004008D400410854
:10044000D5004E30860000308700473FC200C21BF7
:100450002A2A2C2A01302D2A00302000C300C40192
:100460004308CC004408CD004C084D040319392A38
:100470003A2A582ACE09CF09D009D109D209D3097D
:10048000D409D509CE0A031D582ACF0A031D582ABC
:10049000D00A031D582AD10A031D582AD20A031D67
:1004A000582AD30A031D582AD40A031D582AD50AEC
:1004B0002100DB1B5C2A5D2A612AFD30FA05FF3032
:1004C000FB055B08803A2000C20080304202031D19
:1004D0006C2A013021005A0203186F2A702A762AEA
:1004E00001302000C8000030C9007E2A21005B08CE
:1004F0002000C90021005A082000C8002100590826
:100500002000CB00210058082000CA004C084D04F0
:10051000031D8B2A8C2A902A7A1D8F2A902A942ACE
:10052000FF30CA07FF30CB3D1F30D6000030D70068
:100530002200C701042BFF302000D607FF30D73D33
:100540000A30A000A101A201A301A401A501A601F6
:10055000A7014E08A8004F08A9005008AA0051089A
:10056000AB005208AC005308AD005408AE0055086B
:10057000AF0085318A25823120002108F60020084D
:10058000F5008B31C72382317508303E2000C20050
:100590005608283E86000130870042088100FF305F
:1005A000C807FF30C93DFF30CA07FF30CB3D0A30D6
:1005B000A000A101A201A301A401A501A601A70118
:1005C0004E08A8004F08A9005008AA005108AB0027
:1005D0005208AC005308AD005408AE005508AF00F7
:1005E00084318624823120002008CE002108CF00EB
:1005F0002208D0002308D1002408D2002508D30007
:100600002608D4002708D50020005708803AC200E9
:1006100080304202031D0E2B01305602031C112BA9
:10062000122B3E2B20004E084F045004510452045C
:10063000530454045504031D1E2B1F2B9B2A4908E9
:10064000803AC20080304202031D282B013048024C
:1006500003182B2B2C2B9B2A20004B08803AC2001E
:1006600080304202031D362B01304A02031C392B15
:100670003A2B3E2BFA183D2B3E2B9B2A20004C0890
:100680004D04031D442B452B492B7A1D482B492B28
:10069000652BFF30D607FF30D73D4C084D04031DB6
:1006A000522B532B582B2B30C5000030C6005C2B2F
:1006B0002D30C5000030C6004508C2005608283E4F
:1006C000860001308700420881005608283EC2009B
:1006D0004208AA004B08AC004A08AB0047088E311C
:1006E000F226823120002B08BB002A08BA0008003D
:1006F0002000E900580886008701403FDA00413FAA
:10070000DB005A0884005B0885001200253A031DAF
:100710008A2B8B2B622C58088600870101308107B9
:1007200041310318810A2100D801D901FA01FB01E6
:10073000FF30DA00FF30DB00200058088600870118
:10074000403FDA00413FDB005A0884005B08850027
:100750001200643A0319AD2BAE2BBF2B580886004C
:100760008701403FDA00413FDB005A0884005B0804
:1007700085001200693A031DBE2BBF2BFA2B5808C7
:10078000860087010130810741310318810A590829
:100790008600870101088400850102308107003F3F
:1007A000DA00013FDB005A08DF005B08E000890D3A
:1007B000893B8909E100E200E300E400E500E6008E
:1007C0005F08BA006008BB006108BC006208BD0099
:1007D0006308BE006408BF006508C0006608C10069
:1007E000690882310F22833120003B08D9003A0882
:1007F000D800852C580886008701403FDA00413F29
:10080000DB005A0884005B0885001200733A031D60
:100810000A2C0B2C2D2C58088600870101308107EB
:1008200041310318810A59088600870101088400B4
:10083000850102308107003FE700013FE8006808BA
:10084000A6006708A5006908863174268331200058
:100850002608D9002508D800852C5808860087016D
:10086000403FDA00413FDB005A0884005B08850006
:100870001200253A031D3D2C3E2C572C58088600AB
:1008800087010130810741310318810A2530F400C6
:100890000030F5006908DA005A08F6008D31DF25CE
:1008A000833101302000D8000030D900852C580851
:1008B000860087010130810741310318810AD80180
:1008C000D901852C580886008701403FDA00413F56
:1008D000DB005A0884005B0885000008DC00DD01AD
:1008E0005C08F4005D08F5006908DE005E08F600AB
:1008F0008D31DF25833120005808860087010130C3
:10090000810741310318810A512C08002000B101F0
:100910002030860000308700473FF200F21F912C04
:10092000922CB42C2000A009A109A209A309A409B2
:10093000A509A609A709A00A031DB12CA10A031D38
:10094000B12CA20A031DB12CA30A031DB12CA40AC9
:10095000031DB12CA50A031DB12CA60A031DB12C41
:10096000A70A2000B101B10A2830860000308700B4
:10097000473FF200F21FBD2CBE2CE22C2000A8093C
:10098000A909AA09AB09AC09AD09AE09AF09A80AC2
:10099000031DDD2CA90A031DDD2CAA0A031DDD2C75
:1009A000AB0A031DDD2CAC0A031DDD2CAD0A031DB3
:1009B000DD2CAE0A031DDD2CAF0A0130F2007208F7
:1009C0002000B10632308600003087000830F20087
:1009D00000301E00F20BE92C200020082104220424
:1009E000230424042504260427040319F82CF92CD5
:1009F000552DB001B00A082DA035A10DA20DA30DF3
:100A0000A40DA50DA60DA70D0130F2007208B007C8
:100A1000A71F0B2D0C2DFC2CB235B30DB40DB50D4D
:100A2000B60DB70DB80DB90D27082F02031D322DD5
:100A300026082E02031D322D25082D02031D322DFE
:100A400024082C02031D322D23082B02031D322DF6
:100A500022082A02031D322D21082902031D322DEE
:100A600020082802031C352D362D472D2008A8020A
:100A70002108A93B2208AA3B2308AB3B2408AC3B36
:100A80002508AD3B2608AE3B2708AF3B3214A736FE
:100A9000A60CA50CA40CA30CA20CA10CA00C01305C
:100AA000B002031D542D552D0C2D31080319592D5D
:100AB0005A2D782DB209B309B409B509B609B70999
:100AC000B809B909B20A031D782DB30A031D782DA0
:100AD000B40A031D782DB50A031D782DB60A031D2F
:100AE000782DB70A031D782DB80A031D782DB90A91
:100AF00020003208A0003308A1003408A200350805
:100B0000A3003608A4003708A5003808A600390855
:100B1000A7000800F4012830860000308700473F16
:100B2000F200F21F942D952DB62D2000A809A909D9
:100B3000AA09AB09AC09AD09AE09AF09A80A031DA2
:100B4000B42DA90A031DB42DAA0A031DB42DAB0AA6
:100B5000031DB42DAC0A031DB42DAD0A031DB42D25
:100B6000AE0A031DB42DAF0AF401F40A203086004A
:100B700000308700473FF200F21FBF2DC02DDF2D50
:100B80002000A009A109A209A309A409A509A60991
:100B9000A709A00A031DDF2DA10A031DDF2DA20A4C
:100BA000031DDF2DA30A031DDF2DA40A031DDF2D66
:100BB000A50A031DDF2DA60A031DDF2DA70A2000AD
:100BC00020082104220423042404250426042704E5
:100BD0000319EB2DEC2D3F2EF301F30AFB2DA0356D
:100BE000A10DA20DA30DA40DA50DA60DA70D0130FD
:100BF000F2007208F307A71FFE2DFF2DEF2D270827
:100C00002F02031D1D2E26082E02031D1D2E250852
:100C10002D02031D1D2E24082C02031D1D2E23084A
:100C20002B02031D1D2E22082A02031D1D2E210842
:100C30002902031D1D2E20082802031C202E212E10
:100C4000312E2008A8022108A93B2208AA3B23082C
:100C5000AB3B2408AC3B2508AD3B2608AE3B270840
:100C6000AF3BA736A60CA50CA40CA30CA20CA10CA0
:100C7000A00C0130F302031D3E2E3F2EFF2D740801
:100C80000319432E442E622EA809A909AA09AB090B
:100C9000AC09AD09AE09AF09A80A031D622EA90A65
:100CA000031D622EAA0A031D622EAB0A031D622ECB
:100CB000AC0A031D622EAD0A031D622EAE0A031D8F
:100CC000622EAF0A20002808A0002908A1002A08E7
:100CD000A2002B08A3002C08A4002D08A5002E08B4
:100CE000A6002F08A70008002000B200663086008A
:100CF0000130870027308400003085000730F7007E
:100D000016001A00F70B802E2608B4002508B30041
:100D100033083404031D8D2E8E2E922E2730B300FF
:100D20000030B4003408F3003308F2008B31AE23F6
:100D3000863173082000B8007208B70021005B08F4
:100D40002000B60021005A082000B500B61BA92ECD
:100D5000AA2EBE2E3608803AF7003808803A77026D
:100D6000031DB42E37083502031CB72EB82EB92E3A
:100D7000BE2E20003608B8003508B700200038081D
:100D8000B6003708B500210059082000B100210045
:100D900058082000B0007A18CE2ECF2EEF2EE12E6C
:100DA0002030F4000030F50020003208F70077080A
:100DB000F6008D31DF25863101302000B707003085
:100DC000B83D3808803AF7003108803A7702031DB1
:100DD000EB2E30083702031CEE2EEF2ED02E200013
:100DE000AE01AF010F2F20003308840034088500C6
:100DF0000008F700F8017708F4007808F5003208D9
:100E0000F9007908F6008D31DF25863101302000A8
:100E1000B3070030B43D0130AE070030AF3D2F08BE
:100E2000803AF7003608803A7702031D192F3508FB
:100E30002E02031C1C2F1D2FF32E7A1C202F212F76
:100E4000422F332F2030F4000030F500200032080C
:100E5000F7007708F6008D31DF258631013020005C
:100E6000B7070030B83D20003808803AF700310855
:100E7000803A7702031D3E2F30083702031C412FB2
:100E8000422F222F20003808A6003708A5000800AE
:100E90002000AD00AB01AC01A401A501532F01302E
:100EA000A0002008AD07AA01AA0A2D08860001307B
:100EB00087002030010603195E2F5F2F742F2D0845
:100EC0008600013087000108F73EA000FF300318BC
:100ED0000030A10000302102053003192002031C5C
:100EE000722F732F742FAA012A08A000A1012008D5
:100EF000A6002108A70026082704031D802F812FA4
:100F00004F2F8B2F0130A4000030A5000130A0002E
:100F10002008AD07BD2F2D0886000130870001088D
:100F2000A000A1012108003A0319972FBD2F200826
:100F30002B3A0319862F063A0319822FBD2F2D084D
:100F40008600013087002C08F3002B08F2000A30DD
:100F5000F4000030F5008C311B2487317308200029
:100F6000A10001087202A000031CA1032008303E6A
:100F7000AB000030213DAC00862F2D0886000130EB
:100F800087000108D03EA000FF3003180030A10008
:100F9000003021020A3003192002031CD02FD22F67
:100FA0000130D32F0030A200A3012208A80023089B
:100FB000A90028082904031DDE2FDF2F9F2F2408F6
:100FC0002504031DE42FE52FF12F2B09A0002C0988
:100FD000A100A00A0319A10A2008F8002108F900BD
:100FE000F52F2C08F9002B08F8000800F20020006B
:100FF000101EFB2FFC2FF72F720823009A00080009
:1014E2008A31F1228A31080073082200EE00720864
:1014F200ED00080073082100EC007208EB00080000
:1015020073082100EA007208E9000800730821004C
:10151200E8007208E700080073082100EE00720874
:10152200ED00080073082100E4007208E3000800DF
:10153200F30073088731F6278A31080064008001BE
:101542000131890BA02A0034FE0012001E00FE0B9E
:10155200A62A0034783021009900980122009601D1
:10156200080028346E3475346C346C3429340034F9
:101572002700131CBD2ABE2AC12A8C31C0248A31FD
:10158200080001302100D2070030D33D0030D43DA5
:101592000030D53D080080302C0099007C30980046
:1015A200C0309700CF3025009E05080080302C0007
:1015B2009C007C309B00C0309A003F3025009E0585
:1015C20008002000901021006D086E040319EA2A19
:1015D200EB2AF02A6E088A006D080A008A31080098
:1015E2002000901EF52AF62AF12A2100E2012300AA
:1015F2009D1CFC2AFD2AFF2A1D121D16190808002F
:101602002900151D052B062B0D2B151071089400B2
:10161200700893001514112B710894007008930040
:10162200080020009E019D019F01F9309B009A0154
:10163200901021009014C230F2000A30F3008A3177
:101642008D228B31C03020009C0008008E311F2675
:101652008B318A31AB228B318B31E1238B318A3151
:10166200D7228B318A31CC228B318B3112238B31B1
:101672008C317B248B3108007308F5007208F4006A
:10168200F536F40CF536F40C74082C009800720848
:101692000339F4000530F435FF3E031D4C2B74353D
:1016A200970008007308F5007208F400F536F40C90
:1016B200F536F40C74082C009B0072080339F40010
:1016C2000530F435FF3E031D622B74359A00080085
:1016D200A5302000EF006F082100A9002408200097
:1016E200EB00210023082000EA00A930EF006F0878
:1016F200EC0000308D3141258B310800200014139D
:1017020021006608F1006508F0008B3101238B315E
:1017120021006308640403198F2B902B952B640816
:101722008A0063080A008B3108007208D03EF40078
:10173200FF30733DF500003075020A300319740260
:10174200031CA42BA62B0130A72B0030F600F701B7
:101752007608F2007708F30008007308F6007208B2
:10176200F500B72B0130F2070030F33D7208840018
:10177200730885001200031DBF2BC02BB32B750805
:101782007202F2007608733BF30008007608803A92
:10179200F70080307702031DD02B01307502031849
:1017A200D32BD42BE02B7509F7007609F800F70A42
:1017B2000319F80A7708F5007808F600E02B08000C
:1017C20029009601D8309400F030930020001413C1
:1017D200290014082100E600290013082100E50071
:1017E20014170330F2000030F3008A3193228B3158
:1017F20031302900950008007208840073088500C2
:1018020000087406031D062C072C082C1A2C7308DA
:10181200F7007208F600F20A0319F30A7608840048
:10182200770885001200031D172C182CFD2BF201DE
:10183200F3010800F601F701721C202C212C252C43
:101842007408F6077508F73D0130F435F50D890B7C
:10185200262C0130F336F20C890B2B2C7208730400
:10186200031D342C352C1D2C7708F3007608F2006A
:1018720008002100DC01DD010030F200F3008B31B1
:101882003D238C310030F200F3008B3153238C3135
:10189200AE302100A3009030A4008B3169238C313B
:1018A200FB302100A3009130A4008B3169238C31DD
:1018B2000800F601F60A2030720673040319622C3E
:1018C200632C732C7208F73EF400FF30733DF50071
:1018D20000307502053003197402031C712C722C3E
:1018E200732CF6017608F400F5017408F20075080D
:1018F200F3000800083023009F0090309D00243040
:101902009E0022309B009C010030F2000030F30068
:101912008A317B228C310030F2000030F3008A31B0
:1019220081228C310030F2000030F3008A317522BE
:101932008C312100E20108008B3127238C318B1777
:101942000B170B302100C5002630C4005D30890B17
:10195200A82CC40BA82CC50BA82C003222008E1474
:101962000E15FB302100A3009130A4008B316923B6
:101972008C318E3163268C31BA2C80313428200090
:101982008C1CC42CC52CCF2C01302100CE0700307A
:10199200CF3D0030D03D0030D13DD82CFF3021006A
:1019A200CE07FF30CF3DFF30D03DFF30D13D67083D
:1019B20068040319DD2CDE2CE32C68088A00670812
:1019C2000A008C312700131008002000A900A7018B
:1019D200A801FE2C2608F700F8017708F400780821
:1019E200F5002508F9007908F6008D31DF258C31E4
:1019F20001302000A7070030A83D27082907F7007B
:101A020077088600013087000108F8007808A600F0
:101A12002608031D0D2D0E2DEB2C0800F500192DA7
:101A22000130F4007408F5070130F2070030F33D8D
:101A320072088400730885000008F40075088600A7
:101A42000130870001087406031D282D292D322D2F
:101A520075088600013087000108031D312D322DE3
:101A6200112D750886000130870072088400730802
:101A7200850000080102F200F301031CF3030800D1
:101A82002100A00020006B082100A20020006A08AB
:101A92002100A100D601D701642DA1302000ED0064
:101AA2006D08D8006C08EE006E08D90021002008ED
:101AB200833178238D31200058082100D607200079
:101AC20059082100D73D2108840022088500120010
:101AD200031D6C2D6D2D4E2D57082000EB002100AB
:101AE20056082000EA0008002000A600A401A50173
:101AF200832D01302000A2002208A6070130A4078E
:101B02000030A53D26088600013087000108031930
:101B12008B2D8C2DA42D2108F3002008F20026081D
:101B22008600013087000108A200A3012208F40008
:101B32002308F5008B31FD238D31720873040319DC
:101B4200A32DA42D7A2D20002508A1002408A00091
:101B520008002000A600A401A501B82D0130200034
:101B6200A2002208A6070130A4070030A53D2608DE
:101B720086000130870001080319C02DC12DD92D1F
:101B82002108F3002008F2002608860001308700B1
:101B92000108A200A3012208F4002308F5008B31FA
:101BA200FD238D3172087304031DD82DD92DAF2D5D
:101BB20020002508A1002408A000080076080319C7
:101BC200E32DE42DE92D7608031DE82DE92DEE2DF8
:101BD20074088A3199228D311E2E7608033E8600C2
:101BE2008701160001040319F72DF82D162E760829
:101BF200033E86008701403F2000A000413FA10034
:101C0200760A86008701403FA200413FA3002308D5
:101C1200803AA4002108803A2402031D122E2008D3
:101C220022020318152E162E1E2E760A8600870112
:101C32000130810741310318810A080022008C011A
:101C42008D018E01333021008C0070308D00F83010
:101C52008E00483023008E0070308D0010308C00D2
:101C6200A03024008D0007308C0087308E002100C8
:101C7200951725008C018D018E01373026008C00CE
:101C8200F0308D00FF308E003F3027008C00F030A6
:101C92008D00FF308E001310121011140230F2006A
:101CA2000030F3008A3187228E318B150F303D00D0
:101CB200A00017303C00A40012303D009F000E30FF
:101CC200920008008A3171228E312100C20042083E
:101CD200C3000A30430603196F2E702E8A2E0D3070
:101CE20043060319752E762E8A2E4308C200610818
:101CF200483E860001308700420881000130C20060
:101D02004208E1071E306102031C882E892E8A2EAA
:101D1200E10124304306031D8F2E902EA62E61086A
:101D2200483E8600013087008101E101B030A30006
:101D32009130A4004830A5000130A6008B31692300
:101D42008E314830803158208E31080021002B0816
:101D5200DD002A08DC005D08803AAC0080302C02ED
:101D6200031DB52E01305C02031CB82EB92EC82EFD
:101D720021005D08F3005C08F2008B313D238E31B7
:101D82000030F200F3008B3153238E31DD2E003010
:101D9200F200F3008B313D238E3121005C09AC004F
:101DA2005D09AD00AC0A0319AD0A2C08F2002D083A
:101DB200F3008B3153238E3170302100A300903019
:101DC200A4005D08A6005C08A5008B3169238E3152
:101DD200FB302100A3009130A4008B3169238E31A6
:101DE20008002000B2007A1CF72EF82E002F3208CD
:101DF200AD002D08A5002A088C31E6248E31200082
:101E0200AC1B042F052F0A2F2C08B1002B08B000A1
:101E12000C2FB001B101AE01AF01202F2030F40030
:101E22000030F50020003208AD002D08F6008D319B
:101E3200DF258E3101302000AE070030AF3D2F0884
:101E4200803AAD003108803A2D02031D2A2F300856
:101E52002E02031C2D2F2E2F0F2F7A18312F322FE7
:101E62003B2F20003208AD002D08A5002A088C3136
:101E7200E6248E3120002A08F2000130F3008B3173
:101E8200AE238E31200030087207AA003108733D5C
:101E9200AB000800F9007908031D502F512F5E2F67
:101EA200210060082000A9002908F9007908031D13
:101EB2005B2F5C2F5E2F0030A32F20002808A1008B
:101EC2002708A00079088D31AA258F31200020082B
:101ED200A9002908F907790886000130870001085E
:101EE200031D742F752F792F2100E0010030A32FDD
:101EF2002808A1002708A00079088D3175258F31A7
:101F020020002008A9002108AA0079082907AB00AF
:101F12002B082100E00060088600013087000108DC
:101F22000319942F952FA12F600886000130870096
:101F3200810101302000A90029082100E007A22F19
:101F4200E001790808002000A0002008F6007608C9
:101F5200A3007308A2007208A1000130F40200304D
:101F6200F53B740A031DB92F750A031DB92FBA2F49
:101F7200C92FF201F301FF2F0130F6007608A30703
:101F82000130A1070030A23D0130F4020030F53BE0
:101F9200230886000130870001080319D12FD22FB0
:101FA200F12F210884002208850012000319DA2F7C
:101FB200DB2FF12F740875040319E02FE12FF12FA5
:101FC20021088400220885000008F6002308860004
:101FD20001308700010876060319F02FF12FBD2F7B
:101FE200230886000130870021088400220885002A
:101FF20000080102F200F301031CF303080020347D
:1020020072344E344E344E342C3467344E344E34A3
:102012004E342C3462344E344E344E342C347734B5
:102022004E344E344E3420342D34203473346534DF
:1020320074342034733470346534653464347334E6
:10204200203430342D3431343034323433340A34A1
:1020520000342034733474346134723474342C3464
:102062004E344E342034203420342D342034733412
:10207200743461347234743420346D346F34743493
:102082006F3472342C3420344E344E3420343D3488
:102092002034523450344D340A3400342034653400
:1020A2007834693474342034203420342034203499
:1020B200203420342D342034653478346934743437
:1020C200203463346F346D346D3461346E3464346F
:1020D20020346D346F34643465340A3400344D3442
:1020E2006F3474346F3472345F3453347434613403
:1020F20072347434283429343A34203454346134F8
:1021020072346734653474342034523450344D346C
:1021120020343D342034253464340A3400345334BA
:10212200743461347234743469346E3467342034F4
:102132006D346F3474346F347234203474346134D7
:102142007234673465347434203425346434203472
:10215200523450344D340A3400344D346F347434B4
:102162006F3472345F34533474346F3470342834BF
:1021720029343A3420344D346F3474346F34723429
:102182002034733474346F3470347034653464348E
:102192000A3400342034683465346C3470342034AA
:1021A2002034203420342034203420342D34203480
:1021B200733468346F347734203463346F346D345D
:1021C2006D3461346E34643473340A340034203430
:1021D200613452342C3447342C3442342C34573446
:1021E2002034203420342D34203473346534743454
:1021F200203461346C346C342034503457344D34D0
:1022020073340A34003420346734653474347234DD
:1022120070346D34203420342034203420342D3472
:102222002034723465347434753472346E347334D9
:102232002034723470346D340A34003420347334F0
:1022420074346F34703420342034203420342034F9
:10225200203420342D342034733474346F34703489
:1022620020346D346F3474346F3472340A34003471
:1022720066346C34753473346834203462347534A3
:1022820066346634653472342034723465346334AF
:10229200653469347634653464340A340034203465
:1022A2007634203420342034203420342034203436
:1022B2002034203420342D34203476346534723482
:1022C200733469346F346E340A3400342034663423
:1022D200203420342034203420342034203420345C
:1022E200203420342D34203466346C347534733405
:1022F20068340A34003455346E346B346E346F34BF
:1023020077346E34203463346F346D346D34613419
:102312006E3464343A342034253473340A3400344D
:10232200763431342E3430342E3430342034313457
:1023320031342D34303431342D34323435340034A8
:102342004D346F3474346F347234203472347034D8
:102352006D343A342034253464340A34003472340F
:1023620065346334653469347634653464343A34BC
:102372002034253473340A340034763465347234AC
:10238200733469346F346E3420343D342034253450
:1023920073340A3400344D346F3474346F3472340D
:1023A2002034733474346F3470340A340034433458
:1023B2006F346D346D3461346E34643473343A3452
:1023C2000A340034733474346134723474342C3407
:1023D2000034673465347434723470346D340034CC
:1023E200683465346C3470340034733474346F344C
:0E23F200703400340A342F343E34203400346A
:020000040001F9
:06000E00FC3FFF3E9F3F96
:00000001FF
