:020000040000FA
:0400000080312628FD
:1000060008007E1480318B1D09280A2812280B1C33
:100016000D280E28122890318B20803124280B1FA2
:100026001528162824282100141F1A281B282428DE
:100036002000141F1F282028242891316521803193
:1000460024287E10090080312828843084009030CE
:1000560085005B30860001308700073090317020C4
:1000660080310F30840091308500C6308600013023
:1000760087001430903170208031EA01EB01EC01E9
:10008600ED012100E401E501E601E701E801E901EE
:1000960044308400013085000F3090316A20803171
:1000A600A030840001308500263090316A208031EE
:1000B6002030840002308500203090316A20803163
:1000C6007E1020008731DE2F200023088039F900BA
:1000D6007908A8002335F9007908AE00A21F742814
:1000E600752876282E142E0803197A287B288A2844
:1000F6002E0A031D7F28802888280030A3000030A0
:10010600A2000030A1000030A000A2179228003003
:10011600A3000030A2000030A1000030A000270894
:100126008039F9007908A8062735F9007908AD0065
:10013600A61F9E289F28A0282D142D080319A42841
:10014600A528B4282D0A031DA928AA28B2280030FC
:10015600A7000030A6000030A5000030A400A617B6
:10016600BC280030A7000030A6000030A5000030F3
:10017600A4002D080319C028C128C6282E08031D6F
:10018600C528C628CF280030A3000030A2000030C2
:10019600A1000030A000BD2A2008F9007908F0006F
:1001A60026089231B222803171082000B40070080E
:1001B600B3003308F900FA01FB01FC017C08AC002E
:1001C6007B08AB007A08AA007908A9003408F90070
:1001D600FA01FB01FC017C08B2007B08B1007A0839
:1001E600B0007908AF002108F9007908F000250869
:1001F6009231B222803171082000B4007008B30039
:100206003308F900FA01FB01FC017908A9077A080D
:10021600AA3D7B08AB3D7C08AC3D3408F900FA01E9
:10022600FB01FC017908AF077A08B03D7B08B13DB8
:100236007C08B23D2208F9007908F00024089231C2
:10024600B222803171082000B4007008B300330870
:10025600F900FA01FB01FC017908A9077A08AA3D11
:100266007B08AB3D7C08AC3D3408F900FA01FB0184
:10027600FC017908AF077A08B03D7B08B13D7C08E0
:10028600B23D0830A935AA0DAB0DAC0D890B452939
:100296002108F9007908F00024089231B222803151
:1002A60071082000B4007008B3003308A9073408A9
:1002B600AA3D0030AB3DAC3D2008F9007908F000BE
:1002C60025089231B222803171082000B4007008EE
:1002D600B3003308A9073408AA3D0030AB3DAC3D56
:1002E6000830A935AA0DAB0DAC0D890B7429200871
:1002F600F9007908F00024089231B22280317108A1
:100306002000B4007008B3003308A9073408AA3DDA
:100316000030AB3DAC3D2108F9007908F000260815
:100326009231B222803171082000B4007008B30007
:100336003308AF073408B03D0030B13DB23D220866
:10034600F9007908F00025089231B222803171084F
:100356002000B4007008B3003308AF073408B03D7E
:100366000030B13DB23D2208F9007908F0002608B8
:100376009231B222803171082000B4007008B300B7
:100386003308F9003408FA00FB01FC010830F9359E
:10039600FA0DFB0DFC0D890BCA297908AF077A08FF
:1003A600B03D7B08B13D7C08B23D2908F9002A081A
:1003B600FA002B08FB002C08FC001830FC36FB0C5E
:1003C600FA0CF90C890BE1297908AF077A08B03DD8
:1003D6007B08B13D7C08B23D0830A935AA0DAB0DAE
:1003E600AC0D890BF0292E082D07F900FA01FA0D3C
:1003F6007908823EB300FF307A3DB400192A0130F5
:10040600AF35B00DB10DB20D890B032AAC1F0C2A06
:100416000D2A0E2A2F140130A935AA0DAB0DAC0DED
:10042600890B0F2AFF30B307FF30B43DB11F1C2ADA
:100436001D2A022AAD01AC1F212A222A3E2AFF309C
:100446002905F900FF302A05FA00FF302B05FB00CD
:100456007F302C05FC007C087B047A0479040319A0
:10046600352A362A392AAD01AD0A3E2A2F1C3C2AE6
:100476003D2A3E2A362A2D080319422A432A6B2A88
:100486000130AF070030B03D0030B13D0030B23D25
:10049600321C4E2A4F2A6B2A2F08F9003008FA0020
:1004A6003108FB003208FC000130FD00FC37FB0C74
:1004B600FA0CF90CFD0B592A7C08B2007B08B10036
:1004C6007A08B0007908AF000130B3070030B43DB8
:1004D6003408803AF90080307902031D742AFF300F
:1004E6003302031C772A782A822A7F302000B20042
:1004F6008030B1000030B0000030AF00B12A2000DB
:100506003408803AF90080307902031D8C2A0130C4
:10051600330203188F2A902A9B2A00302000B2004B
:100526000030B1000030B0000030AF00A801B12AA1
:1005360020003308F9007908AE00FF30AF05FF3020
:10054600B0057F30B1050030B2052E1CAB2AAC2AAF
:10055600AD2AB1172E36F9007908B2002808F9003D
:100566007908B2043208A3003108A2003008A100BD
:100576002F08A0000800200038088039BD003D087B
:10058600C5003835BD003D08C700B71FCB2ACC2AA9
:10059600CD2A471447080319D12AD22AE22A470A44
:1005A600031DD62AD72ADF2A0030B8000030B7004C
:1005B6000030B6000030B500B717B801EA2A00309F
:1005C600B8000030B7000030B6000030B5003C0877
:1005D6008039BD003D08C600460845060319F42AC1
:1005E600F52AF62A45173C35BD003D08C600BB1F57
:1005F600FD2AFE2AFF2A461446080319032B042B5C
:10060600142B460A031D082B092B112B0030BC00A6
:100616000030BB000030BA000030B900BB17BC0187
:100626001C2B0030BC000030BB000030BA0000308C
:10063600B900470846020318212B222B662B451FBB
:10064600252B262B2A2B8030BD003D08C5064708E2
:10065600BD003D08C8004608BD003D08C700480863
:10066600BD003D08C6003508BD003D08C800390874
:10067600BD003D08B5004808BD003D08B900360874
:10068600BD003D08C8003A08BD003D08B600480850
:10069600BD003D08BA003708BD003D08C8003B084C
:1006A600BD003D08B7004808BD003D08BB0038083E
:1006B600BD003D08C8003C08BD003D08B80048081C
:1006C600BD003D08BC00C8014608BD00BE013E088D
:1006D600C00047083D02BF00031CC0034008803A23
:1006E600C10080304102031D7A2B1A303F02031CE1
:1006F6007D2B7E2BB62B20003808370436043504B4
:10070600031D862B882B0130892B0030BD003D0848
:10071600C8000030B8000030B7000030B600003026
:10072600B5004608BD003D08C700BD2B481C9C2BE4
:100736009D2BA32B48360138BD003D08C800A52BCC
:100746000310C80C351CA82BA92BAA2BC8170130DF
:10075600BD00B837B70CB60CB50CBD0BAC2B0130D1
:10076600BD003D08C707200046084702031CBC2BF6
:10077600BD2B992B451BC02BC12BF92B4708031DFD
:10078600C52BC62BCF2B0030B8000030B700003089
:10079600B6000030B500F52C3908B5073A08B63D65
:1007A6003B08B73D3C08B83D381CDA2BDB2B852CC3
:1007B600481CDE2BDF2BE52B48360138BD003D08F3
:1007C600C800E72B0310C80C351CEA2BEB2BEC2BCF
:1007D600C8170130BD00B837B70CB60CB50CBD0B49
:1007E600EE2B0130BD003D08C707852C3808803A3E
:1007F600BD003C08803A3D02031D0B2C3B08370226
:10080600031D0B2C3A083602031D0B2C3908350242
:1008160003180E2C0F2C472CFF30BD00FF30BE00F6
:10082600FF30BF00FF30C00035083902C10036086E
:100836003A3BC20037083B3BC30038083C3BC40088
:100846004108BD074208BE3D4308BF3D4408C03DC0
:100856004008B8003F08B7003E08B6003D08B5009E
:100866008030BD003D08C506C809C80A4808031DF2
:100876003D2C3E2C4F2C0130B5070030B63D0030E4
:10088600B73D0030B83D4F2C3908B5023A08B63BA3
:100896003B08B73B3C08B83B3808370436043504F8
:1008A600031D562C572C812C4808031D5B2C5C2CF1
:1008B600812C0030B8000030B7000030B6000030A0
:1008C600B500F52C0130B535B60DB70DB80D890B51
:1008D600662CC81F6F2C702C712C3514481C742C78
:1008E600752C782C0314C80D7A2C0310C80D4708F4
:1008F60003197E2C7F2C812C0130C702B71F842C54
:10090600852C652CC601C81F892C8A2C982C480872
:100916007F3903198F2C902C932CC601C60A982C6C
:10092600351C962C972C982C902C460803199C2C39
:100936009D2CCA2C0130B5070030B63D0030B73DBE
:100946000030B83D381CA82CA92CCA2C3508BD008F
:100956003608BE003708BF003808C0000130C100A5
:10096600C037BF0CBE0CBD0CC10BB32C4008B80081
:100976003F08B7003E08B6003D08B500470A031910
:10098600C52CC62CCA2C0130BD003D08C707470A36
:100996000319CE2CCF2CD42C4708031DD32CD42CD2
:1009A600E22C0030B8000030B7000030B60000304E
:1009B600B5004708031DE02CE12CE22CC501471CBD
:1009C600E52CE62CE82CB717EC2C7F30BD003D0853
:1009D600B7054736BD003D08B800C51FF32CF42CFB
:1009E600F52CB81708002400D20052082100A600F2
:1009F6000130A7009131DE2184312100270824002F
:100A0600CA00210026082400C90049084A0403191F
:100A16000D2D0E2D182D490852072200BF003F0844
:100A2600FF3E8600013087008101D2302100A600FA
:100A36009930A7000630A8000030A900240052080B
:100A460096311E268431210026082704031D2C2DED
:100A56002D2D5D2D24005208063E2200BF003F08C2
:100A66002400C800480889318F21843121002D08CF
:100A76002400CC0021002C082400CB00903022005A
:100A8600B5009830B60024004C082200B8002400B7
:100A96004B082200B70091317C21843124004C0898
:100AA6002200BE0024004B082200BD009331C5235E
:100AB6008431D82EE530A6009930A70024005208CC
:100AC60094312A248431210026082704031D6C2D25
:100AD6006D2D792DBB302200B5009930B6009131CD
:100AE6007C218431933199238431D82ED930A600C4
:100AF6009930A7002400520894312A248431210019
:100B060026082704031D882D892DA22D8430220056
:100B1600B5009930B600210067082200B800210010
:100B260066082200B70091317C218431EA30220028
:100B3600B5009930B60091317C218431D82EE03051
:100B4600A6009930A7002400520894312A24843143
:100B5600210026082704031DB12DB22D0B2EC73008
:100B66002200B5009930B60091317C2184312A30BB
:100B76002200B5009830B60091317C2184310230D4
:100B86002200B5009930B60091317C218431E730DE
:100B96002200B5009830B60091317C2184314F3067
:100BA6002200B5009830B60091317C218431AE30F8
:100BB6002200B5009830B60091317C218431003096
:100BC6002200B5009830B60091317C218431CB30BB
:100BD6002200B5009830B60091317C218431333043
:100BE6002200B5009930B60091317C2184314A301B
:100BF6002200B5009930B60091317C218431EA306B
:100C06002200B5009930B60091317C218431D82E6E
:100C16002400520886000130870061300106031D5A
:100C2600152E162E872E403086000230870008309B
:100C36002200BF0000301E00BF0B1E2ED730210041
:100C4600B4009930B50024005208013E88310020D6
:100C560084312200BF003F082400CF00CD01CE0121
:100C6600732E24004F0889318F21843121002D08ED
:100C76002400D10021002C082400D000D11B442ED2
:100C8600452E542E5108803A2200BF0084303F0280
:100C9600031D502E003024005002031C532E542EE8
:100CA600572E2400D001D10124004D35403E860048
:100CB600023087005008C03F5108C13F0130CD07C0
:100CC6000030CE3DD7302100B4009930B500003059
:100CD6008831002084312200BF003F082400CF0065
:100CE6004F080319772E782E872E4E08803A220059
:100CF600BF0080303F02031D832E043024004D02C6
:100D0600031C862E872E342E2400520886000130BE
:100D1600870076300106031D912E922EA72EA13054
:100D26002200B5009930B6007430B7009930B8008B
:100D360091317C218431EA302200B5009930B60029
:100D460091317C218431D82E5208860001308700EB
:100D560066300106031DB02EB12EC22E1C302200B5
:100D6600B5009930B60091317C218431EA302200F9
:100D7600B5009930B60091317C218431D82E5F3090
:100D86002200B5009930B600240052082200B700B0
:100D96000130B80091317C218431EA302200B5005F
:100DA6009930B60091317C21843108002100B801C8
:100DB600A630860000308700473FB600B61FE42EF7
:100DC600E52E072F2100A609A709A809A909AA093E
:100DD600AB09AC09AD09A60A031D042FA70A031D1A
:100DE600042FA80A031D042FA90A031D042FAA0A0B
:100DF600031D042FAB0A031D042FAC0A031D042F89
:100E0600AD0A2100B801B80AAE308600003087006E
:100E1600473F2100B600B61F112F122F362F210093
:100E2600AE09AF09B009B109B209B309B409B509E8
:100E3600AE0A031D312FAF0A031D312FB00A031D61
:100E4600312FB10A031D312FB20A031D312FB30A08
:100E5600031D312FB40A031D312FB50A01302100BD
:100E6600B6003608B806B93086000030870008306C
:100E76002100B60000301E00B60B3E2F26082704C0
:100E8600280429042A042B042C042D0403194C2FAE
:100E96004D2FA92FB701B70A5C2FA635A70DA80DB0
:100EA600A90DAA0DAB0DAC0DAD0D0130B60036087F
:100EB600B707AD1F5F2F602F502FB935BA0DBB0D89
:100EC600BC0DBD0DBE0DBF0DC00D2D083502031D99
:100ED600862F2C083402031D862F2B083302031D90
:100EE600862F2A083202031D862F29083102031D88
:100EF600862F28083002031D862F27082F02031D80
:100F0600862F26082E02031C892F8A2F9B2F260840
:100F1600AE022708AF3B2808B03B2908B13B2A0898
:100F2600B23B2B08B33B2C08B43B2D08B53B391418
:100F3600AD36AC0CAB0CAA0CA90CA80CA70CA60CD5
:100F46000130B702031DA82FA92F602F38080319F7
:100F5600AD2FAE2FCC2FB909BA09BB09BC09BD0903
:100F6600BE09BF09C009B90A031DCC2FBA0A031D61
:100F7600CC2FBB0A031DCC2FBC0A031DCC2FBD0AE8
:100F8600031DCC2FBE0A031DCC2FBF0A031DCC2F79
:100F9600C00A21003908A6003A08A7003B08A800A5
:100FA6003C08A9003D08AA003E08AB003F08AC007B
:100FB6004008AD00080091314F2187318B170B1780
:100FC6000B302200C3002630C2005D30890BE92FAA
:100FD600C20BE92FC30BE92F003222008E140E1527
:100FE600EA30B5009930B60091317C2187319531D0
:100FF6003C258731FA2F803126282100B90039088F
:10100600031D0628072812286808B6003608B90006
:101016003908031D0F2810281228003052283508D9
:10102600AE003408AD00390894319124883121008E
:101036002D08B6003608B907390886000130870042
:101046000108031D272828282B28E80100305228EC
:101056003508AE003408AD00390894315D24883176
:1010660021002D08B6002E08B70039083607B8004B
:101076003808E8006808860001308700010803196F
:1010860045284628502868088600013087008101D7
:101096000130B6003608E8075128E801390808008B
:1010A6002000A901A31F582859286628A009A109CC
:1010B600A209A309A00A0319A10A0319A20A03197E
:1010C600A30AA901A90AA71F69286A287928A409D9
:1010D600A509A609A709A40A0319A50A0319A60AB8
:1010E6000319A70A0130FC007C08A9060030AD00F0
:1010F6000030AC000030AB000030AA002308220408
:1011060021042004031988288928CA28A801A80AC6
:1011160097280130A035A10DA20DA30D890B8D28AE
:101126000130FC007C08A807A31F9A289B288C285E
:101136000130AA35AB0DAC0DAD0D890B9C282308EB
:101146002702031DB02822082602031DB028210805
:101156002502031DB02820082402031CB328B42846
:10116600BD282008A4022108A53B2208A63B230887
:10117600A73B2A140130A336A20CA10CA00C890BA4
:10118600BE280130A802031DC928CA289B282908A1
:101196000319CE28CF28DA28AA09AB09AC09AD096C
:1011A600AA0A0319AB0A0319AC0A0319AD0A2D08DA
:1011B600A3002C08A2002B08A1002A08A000080002
:1011C600F80078080319E828E928FD28F31FEC2819
:1011D600ED28FD287009FA007109FB007209FC0070
:1011E6007309FD00FA0A0319FB0A0319FC0A03191D
:1011F600FD0A05297308FD007208FC007108FB0052
:101206007008FA007308720471047004031D0C2937
:101216000D2916290030F3000030F2000030F100ED
:101226000030F0008E299630F4007408F900262963
:101236000130F4007408F9070130FD36FC0CFB0C94
:10124600FA0C890B2029FE307D05031D2B292C293C
:101256001B2940290130F4007408F9070130FA0708
:101266000030FB3D0030FC3D0030FD3D0130FD36D9
:10127600FC0CFB0CFA0C890B3A29FF307D05031D8B
:10128600452946292D2950290130F9020130FA3520
:10129600FB0DFC0DFD0D890B4A29FC1B5329542916
:1012A6005A2902307902031859295A2947297918E7
:1012B6005D295E296629FF30FA05FF30FB057F3080
:1012C600FC05FF30FD050310F90C7908F400F50163
:1012D600F601F7011830F435F50DF60DF70D890B0B
:1012E6006E297408FA047508FB047608FC0477086E
:1012F600FD0478080319802981298629F31F84298A
:1013060085298629FD177D08F3007C08F2007B08F5
:10131600F1007A08F00008002100BB00B901BA010B
:10132600B201B3019A290130AE002E08BB07B801FD
:10133600B80A3B08860001308700203001060319F1
:10134600A529A629BB293B0886000130870001088C
:10135600F73EAE00FF3003180030AF0000302F021A
:10136600053003192E02031CB929BA29BB29B80175
:101376003808AE00AF012E08B4002F08B5003408B7
:101386003504031DC729C8299629D2290130B20080
:101396000030B3000130AE002E08BB07042A3B081C
:1013A6008600013087000108AE00AF012F08003A21
:1013B6000319DE29042A2E082B3A0319CD29063AE9
:1013C6000319C929042A3B088600013087003A0818
:1013D600A7003908A6000A30A8000030A9009231FB
:1013E6007022893121002708AF0001082602AE00CD
:1013F600031CAF032E08303EB90000302F3DBA0063
:10140600CD293B088600013087000108D03EAE009A
:10141600FF3003180030AF0000302F020A300319E6
:101426002E02031C172A192A01301A2A0030B0008E
:10143600B1013008B6003108B70036083704031D7D
:10144600252A262AE62932083304031D2B2A2C2AAC
:10145600382A3909AE003A09AF00AE0A0319AF0AB5
:101466002E08AC002F08AD003C2A3A08AD0039081A
:10147600AC0008002100C0005B3086000130870008
:10148600B5308400003085000730B20016001A001F
:10149600B20B492A3108C2003008C1004108420493
:1014A600031D562A572A5B2AB530C1000030C200F8
:1014B6004208A7004108A6009131DE218A312100A9
:1014C6002708C6002608C50022004D082100C400D2
:1014D60022004C082100C300C41B722A732A872AE3
:1014E6004408803AB2004608803A3202031D7D2A3B
:1014F60045084302031C802A812A822A872A210062
:101506004408C6004308C50021004608C400450833
:10151600C30022004B082100BF0022004A08210018
:10152600BE006418972A982AB82AAA2A20302100D1
:10153600A8000030A9004008B2003208AA00943181
:10154600FB248A3101302100C5070030C63D46081C
:10155600803AB2003F08803A3202031DB42A3E08A0
:101566004502031CB72AB82A992A2100BC01BD01ED
:10157600D82A210041088400420885000008B200EC
:10158600B3013208A8003308A9004008B4003408A3
:10159600AA009431FB248A3101302100C1070030B2
:1015A600C23D0130BC070030BD3D3D08803AB20067
:1015B6004408803A3202031DE22A43083C02031C17
:1015C600E52AE62ABC2A2100641CEA2AEB2A0B2B10
:1015D600FD2A20302100A8000030A9004008B200F2
:1015E6003208AA009431FB248A3101302100C50754
:1015F6000030C63D4608803AB2003F08803A3202C3
:10160600031D072B3E084502031C0A2B0B2BEC2A55
:1016160021004608B1004508B00008002100B801C5
:10162600AE30860000308700473FB600B61F1C2B41
:101636001D2B3F2B2100AE09AF09B009B109B20934
:10164600B309B409B509AE0A031D3C2BAF0A031D45
:101656003C2BB00A031D3C2BB10A031D3C2BB20ADE
:10166600031D3C2BB30A031D3C2BB40A031D3C2B64
:10167600B50A2100B801B80AA630860000308700F6
:10168600473F2100B600B61F492B4A2B692B210084
:10169600A609A709A809A909AA09AB09AC09AD09B0
:1016A600A60A031D692BA70A031D692BA80A031D99
:1016B600692BA90A031D692BAA0A031D692BAB0A0C
:1016C600031D692BAC0A031D692BAD0A21002608F0
:1016D6002704280429042A042B042C042D040319A6
:1016E600752B762BC92BB701B70A852BA635A70D07
:1016F600A80DA90DAA0DAB0DAC0DAD0D0130B600B0
:101706003608B707AD1F882B892B792B2D08350294
:10171600031DA72B2C083402031DA72B2B0833020D
:10172600031DA72B2A083202031DA72B2908310205
:10173600031DA72B28083002031DA72B27082F02FD
:10174600031DA72B26082E02031CAA2BAB2BBB2B93
:101756002608AE022708AF3B2808B03B2908B13B54
:101766002A08B23B2B08B33B2C08B43B2D08B53BEB
:10177600AD36AC0CAB0CAA0CA90CA80CA70CA60C8D
:101786000130B702031DC82BC92B892B3808031952
:10179600CD2BCE2BEC2BAE09AF09B009B109B2099E
:1017A600B309B409B509AE0A031DEC2BAF0A031D34
:1017B600EC2BB00A031DEC2BB10A031DEC2BB20A6D
:1017C600031DEC2BB30A031DEC2BB40A031DEC2BF3
:1017D600B50A21002E08A6002F08A7003008A80089
:1017E6003108A9003208AA003308AB003408AC005F
:1017F6003508AD0008002000E50053085102F0004E
:101806005408523BF100F201F11BF2037208F30097
:1018160001308831E3208B3173082000E400720820
:10182600E3007108E2007008E1006408B80063088C
:10183600B7006208B6006108B5006508103E86006C
:1018460001308700403FB900413FBA00423FBB002C
:10185600433FBC008231BE228B3120006508103E1A
:101866008600013087003508C03F3608C13F37087B
:10187600C23F3808C33F65080C3E8600013087002A
:10188600403FC900413FCA00423FCB00433FCC0026
:101896006408D0006308CF006208CE006108CD005E
:1018A600923150228B3120004C08D8004B08D700CB
:1018B6004A08D6004908D5006508103E8600013062
:1018C6008700403FA000413FA100423FA200433FA6
:1018D600A3006508043E860001308700403FA4004F
:1018E600413FA500423FA600433FA7008031672045
:1018F6008B3120002308B8002208B7002108B60063
:101906002008B5006408A3006308A2006208A100CD
:101916006108A0006508860001308700403FA400EA
:10192600413FA500423FA600433FA7008031672004
:101936008B3120002308BC002208BB002108BA0016
:101946002008B9008231BE228B3120003808DC0025
:101956003708DB003608DA003508D9005808A30036
:101966005708A2005608A1005508A0006508083EC1
:10197600860001308700403FA400413FA500423F5A
:10198600A600433FA700803167208B312000230843
:10199600B8002208B7002108B6002008B5005C0888
:1019A600BC005B08BB005A08BA005908B90082316E
:1019B600BE228B3120003808E0003708DF003608E9
:1019C600DE003508DD0065080C3E86000130870024
:1019D6006108C03F6208C13F6308C23F6408C33F55
:1019E6004430F3007F30F200C030F1000030F000E8
:1019F6006008F7005F08F6005E08F5005D08F40071
:101A0600973176278B310318092D0A2D142D443072
:101A16002000E0007F30DF00C030DE000030DD0057
:101A2600352D20006008F3005F08F2005E08F10023
:101A36005D08F000C430F7007F30F600C030F500D6
:101A46000030F400973176278B3103182B2D2C2D7F
:101A5600352DC4302000E0007F30DF00C030DE00CE
:101A66000030DD0020006008F3005F08F2005E0829
:101A7600F1005D08F00096317A268B31710820005E
:101A8600D2007008D10008002200AF0021005F08D4
:101A9600860001308700403F2200A000413FA100A0
:101AA60020088400210885001200253A031D5C2DBC
:101AB6005D2D672E21005F0886000130870001300A
:101AC600810741310318810A2200CA01CB01210096
:101AD600E401E501FF302200CC00FF30CD002100FB
:101AE6005F08860001308700403F2200A000413F8A
:101AF600A10020088400210885001200643A031919
:101B0600852D862D9A2D21005F08860001308700DD
:101B1600403F2200A000413FA10020088400210888
:101B260085001200693A031D992D9A2DEA2D210090
:101B36005F088600013087000130810741310318B4
:101B4600810A6008860001308700010884000130A0
:101B5600850002308107003F2200A000013FA1005E
:101B66002008A5002108A600890D893B8909A70040
:101B7600A800A900AA00AB00AC0025082100C100FE
:101B8600220026082100C200220027082100C300E7
:101B9600220028082100C400220029082100C500CF
:101BA60022002A082100C60022002B082100C700B7
:101BB60022002C082100C80022002F088E3194260E
:101BC6008D3121004208E0004108DF00932E2100FC
:101BD6005F08860001308700403F2200A000413F99
:101BE600A10020088400210885001200733A031D15
:101BF600FD2DFE2D292E21005F088600013087006D
:101C06000130810741310318810A600886000130DE
:101C16008700010884000130850002308107003FFB
:101C26002200AD00013FAE002E082100B1002200C7
:101C36002D082100B00022002F088A313D228D3167
:101C460021003108E0003008DF00932E21005F08F4
:101C5600860001308700403F2200A000413FA100DE
:101C660020088400210885001200253A031D3C2E19
:101C76003D2E5A2E21005F08860001308700013074
:101C8600810741310318810A2530A8000030A900D8
:101C960022002F08A00020082100AA009431FB246E
:101CA6008D3101302100DF000030E000932E21004D
:101CB6005F08860001308700013081074131031833
:101CC600810ADF01E001932E21005F0886000130C2
:101CD6008700403F2200A000413FA1002008840069
:101CE600210885000008A200A30122082100A800FF
:101CF600220023082100A90022002F08A40024089E
:101D06002100AA009431FB248D3121005F08860052
:101D1600013087000130810741310318810A542EB2
:101D260008002100CE004108D5004208D60043082D
:101D3600D7004408D8004508D9004608DA00470805
:101D4600DB004808DC00D530860000308700473FBE
:101D5600C900C91BAF2EB12E0130B22E00302100B2
:101D6600CA00CB014A08D3004B08D40053085404D8
:101D76000319BE2EBF2EDD2ED509D609D709D809DF
:101D8600D909DA09DB09DC09D50A031DDD2ED60AD5
:101D9600031DDD2ED70A031DDD2ED80A031DDD2EF9
:101DA600D90A031DDD2EDA0A031DDD2EDB0A031D0B
:101DB600DD2EDC0A2200CD1BE12EE22EE72EFD30C1
:101DC6002100E405FF30E50522004D08803A210098
:101DD600C90080304902031DF32E013022004C0257
:101DE6000318F62EF72EFD2E01302100CF0000300D
:101DF600D000052F22004D082100D00022004C08FB
:101E06002100CF0022004B082100D20022004A0800
:101E16002100D10053085404031D122F132F172F2E
:101E2600641D162F172F1B2FFF30D107FF30D23D11
:101E36001F30DD000030DE002400BF018B2FFF3095
:101E46002100DD07FF30DE3D0A30A600A701A8010C
:101E5600A901AA01AB01AC01AD015508AE005608B7
:101E6600AF005708B0005808B1005908B2005A0828
:101E7600B3005B08B4005C08B5008B3111238E31CA
:101E860021002708BA002608B9009131F8218E31C1
:101E960021003908303EC9005D08203E8600023028
:101EA600870049088100FF30CF07FF30D03DFF3063
:101EB600D107FF30D23D0A30A600A701A801A9012B
:101EC600AA01AB01AC01AD015508AE005608AF0042
:101ED6005708B0005808B1005908B2005A08B300B4
:101EE6005B08B4005C08B5008631D9268E31210026
:101EF6002608D5002708D6002808D7002908D800C4
:101F06002A08D9002B08DA002C08DB002D08DC0093
:101F160021005E08803AC90080304902031D952FD2
:101F260001305D02031C982F992FC62F21005508FA
:101F360056045704580459045A045B045C04031DF0
:101F4600A52FA62F222F5008803AC90080304902BB
:101F5600031DAF2F01304F020318B22FB32F222FCC
:101F660021005208803AC90080304902031DBD2F66
:101F760001305102031CC02FC12FC62F2100E418C7
:101F8600C52FC62F222F210053085404031DCC2F22
:101F9600CD2FD12F641DD02FD12FED2FFF30DD0790
:101FA600FF30DE3D53085404031DDA2FDB2FE02FEC
:101FB6002B30CC000030CD00E42F2D30CC0000308B
:101FC600CD004C08C9005D08203E8600023087001F
:101FD600490881005D08203EC9004908B80052083A
:101FE600BA005108B9004E089531C5258E31210039
:0A1FF6003908C2003808C1000800D5
:1020CC009031EE2090310800640080010131890BC1
:1020DC006B280034FE0012001E00FE0B7128003429
:1020EC007830210099009801220096010800210007
:1020FC00A70027089031E2209031080028346E3474
:10210C0075346C346C34293400342700131C8F283C
:10211C00902893289231D52290310800210027086D
:10212C002300DB00210026082300DA000800210030
:10213C0027082200DA00210026082200D900080016
:10214C00210027082300DD00210026082300DC00E5
:10215C000800210027082200D800210026082200B0
:10216C00D7000800210027082200D40021002608EF
:10217C002200D300080080302C0099007C3098009D
:10218C00C0309700CF3025009E05080080302C0011
:10219C009C007C309B00C0309A003F3025009E058F
:1021AC00080020009E019D019F01F9309B009A01BF
:1021BC009010C0309C0008002100A6002000101ECA
:1021CC00E828E928E4282100260823009A000800C2
:1021DC002000901EF228F328EE282100E9012300AC
:1021EC009D1CF928FA28FC281D121D161908080038
:1021FC002900151D022903290A29151071089400BC
:10220C007008930015140E2971089400700893003F
:10221C000800003400348034403400340034C034BE
:10222C003F34CD34CC344C343D34003400340034A1
:10223C00003400340034003400347108F3007008AA
:10224C00F200F336F20CF336F20C72082C00980004
:10225C0070080339F2000530F235FF3E031D3229B8
:10226C007235970008007108F3007008F200F3361D
:10227C00F20CF336F20C72082C009B007008033938
:10228C00F2000530F235FF3E031D482972359A00E5
:10229C000800953180259131903176209131923121
:1022AC00142291319031CC2091319031C120913157
:1022BC009031D72091319231FA22913108002000CF
:1022CC00141322005608F1005508F0009031FE203E
:1022DC0091312200530854040319752976297B295E
:1022EC0054088A0053080A00913108003730220044
:1022FC00B9003908BC0036082100E200220035087C
:10230C002100E1003C302200B90039082100E30033
:10231C0000309431C5249131080021002708A90010
:10232C002608A800A936A80CA936A80C28082C0049
:10233C009800210026080339A8000530A835FF3E77
:10234C00031DA42928352C0097000800210027081C
:10235C00A9002608A800A936A80CA936A80C28089C
:10236C002C009B00210026080339A8000530A83555
:10237C00FF3E031DBD2928352C009A0008002100C2
:10238C002608D03EA800FF30273DA90000302902C6
:10239C000A3003192802031CD429D6290130D72965
:1023AC000030AA00AB012A08A6002B08A7000800E1
:1023BC0021002708AA002608A900E8290130A60751
:1023CC000030A73D26088400270885001200031D55
:1023DC00F029F129E42929082602A6002A08273B1E
:1023EC00A700080021003A08803ABB0080303B026D
:1023FC00031D022A013039020318052A062A132A62
:10240C0021003909BB003A09BC00BB0A0319BC0AFC
:10241C003B08B9003C08BA00132A080029009601B1
:10242C00D8309400F03093002000141329001408C5
:10243C002200D600290013082200D5002100141711
:10244C00EE30A6001630A7009031B8209231313012
:10245C002900950008002100260884002708850023
:10246C0000082806031D3B2A3C2A3D2A4F2A270830
:10247C00AB002608AA00A60A0319A70A2A0884009A
:10248C002B0885001200031D4C2A4D2A312AA60167
:10249C00A701080080302000CC065008B8004F0877
:1024AC00B7004E08B6004D08B5004C08BC004B08F0
:1024BC00BB004A08BA004908B9008231BE229231E9
:1024CC0020003808CC003708CB003608CA00350885
:1024DC00C90008002100AA01AB01261C762A772A24
:1024EC007B2A2808AA072908AB3D0130A835A90D7D
:1024FC00890B7C2A0130A736A60C890B812A260869
:10250C002704031D8A2A8B2A732A2B08A7002A0862
:10251C00A60008002100AA01AA0A203026062704DA
:10252C000319992A9A2AAA2A2608F73EA800FF30EE
:10253C00273DA90000302902053003192802031C8D
:10254C00A82AA92AAA2AAA012A08A800A9012808A7
:10255C00A6002908A7000800F800F401F50170088E
:10256C00F200F3017208F6007308F700781CBF2A1A
:10257C00C02AC42A7608F4077708F53D0130F635F1
:10258C00F70D890BC52A0310F80C7808031DCF2A08
:10259C00D02ABC2A7508F1007408F000080020004D
:1025AC008C1CD92ADA2AE32A0130EA070030EB3DE9
:1025BC000030EC3D0030ED3DEB2AFF30EA07FF30F8
:1025CC00EB3DFF30EC3DFF30ED3D22005708580449
:1025DC000319F12AF22AF72A58088A0057080A0028
:1025EC009231270013100800083023009F00903010
:1025FC009D0024309E0022309B009C010030210065
:10260C00A6000030A70090319D20923100302100AF
:10261C00A6000030A7009031A62092310030210096
:10262C00A6000030A7009031942092312100E901DE
:10263C000800F51B222B232B312B7508F100740895
:10264C00F0009131232193310030F000F1009131F1
:10265C0039219331452B0030F000F10091312321C9
:10266C0093317409F6007509F700F60A0319F70A95
:10267C007608F0007708F100913139219331080088
:10268C002100B700B501B6015E2B3408B100B201D0
:10269C003108A8003208A9003008B3003308AA009A
:1026AC009431FB24933101302100B5070030B63D45
:1026BC0035083707B1003108860002308700010861
:1026CC00B2003208B4003408031D6D2B6E2B4B2B5B
:1026DC0008002100AB1B732B742B832B2B08A7003A
:1026EC002A08A60091319321933100302100A600D5
:1026FC00A7009131AC219331982B0030A600A70094
:10270C0091319321933121002A09AC002B09AD00A2
:10271C00AC0A0319AD0A2C08A6002D08A7009131AC
:10272C00AC21933108002200D001D10100302100EE
:10273C00AA00AB0093316F23933100302300D500F6
:10274C000030D4000030D3000030D2000030D9006B
:10275C000030D8000030D7000030D600AF30220057
:10276C00B5009930B60091317C219331EB302200C9
:10277C00B5009930B60091317C21933108002200CC
:10278C003E08D1003D08D00000302300D5000030B9
:10279C00D4000030D3000030D2000030D90000301B
:1027AC00D8000030D7000030D60000302100AA003D
:1027BC00AB0093316F23933170302200B500983009
:1027CC00B6003E08B8003D08B70091317C2193312A
:1027DC00EA302200B5009930B60091317C2193315A
:1027EC0008000030FB000030FA000030F900003027
:1027FC00F800701C022C032C0B2C7408F8077508BD
:10280C00F93D7608FA3D7708FB3D0130F435F50DBE
:10281C00F60DF70D890B0C2C0130F336F20CF10C84
:10282C00F00C890B132C7308720471047004031DD3
:10283C00202C212CFF2B7B08F3007A08F20079085E
:10284C00F1007808F00008002100A900352C0130B7
:10285C00A8002808A9070130A6070030A73D2608C4
:10286C008400270885000008A8002908860001308C
:10287C00870001082806031D442C452C4E2C2908E2
:10288C008600013087000108031D4D2C4E2C2D2C89
:10289C002908860001308700260884002708850057
:1028AC0000080102A600A701031CA70308002100D1
:1028BC00B300B101B2016A2C0130AF002F08B3078D
:1028CC000130B1070030B23D33088600013087007B
:1028DC0001080319722C732C8C2C2E08A7002D08C0
:1028EC00A60033088600013087000108AF00B00154
:1028FC002F08A8003008A900923131229431210010
:10290C002608270403198B2C8C2C622C3208AE0061
:10291C003108AD0008002100B300B101B2019E2CBA
:10292C000130AF002F08B3070130B1070030B23DC2
:10293C00330886000130870001080319A62CA72C48
:10294C00C02C2E08A7002D08A600330886000130E5
:10295C0087000108AF00B0012F08A8003008A900BB
:10296C00923131229431210026082704031DBF2CFB
:10297C00C02C962C3208AE003108AD0008002200A5
:10298C00B200210062082200B4002100610822007C
:10299C00B300C801C901EA2C3330B0003008210063
:1029AC00DF0063082200B10031082100E0002200A2
:1029BC0032088D314725943121005F082200C80769
:1029CC00210060082200C93D3308840034088500CA
:1029DC001200031DF22CF32CD22C49082100E2002A
:1029EC00220048082100E100080021002A080319F0
:1029FC00002D012D062D2A08031D052D062D0B2D4E
:102A0C00280890317D2094313B2D2A08033E860006
:102A1C008701160001040319142D152D322D2A08D7
:102A2C00033E86008701403FAB00413FAC002A0AC1
:102A3C0086008701403FAD00413FAE002E08803A32
:102A4C00AF002C08803A2F02031D2E2D2B082D02CF
:102A5C000318312D322D3B2D21002A0A86008701C7
:102A6C000130810741310318810A0800903166203A
:102A7C0095312200C0004008C1000A3041060319FC
:102A8C00482D492D632D0D30410603194E2D4F2D28
:102A9C00632D4108C0005208A83E86000130870013
:102AAC00400881000130C0004008D2071E3052029D
:102ABC00031C612D622D632DD20124304106031DB0
:102ACC00682D692D7F2D5208A83E860001308700A5
:102ADC008101D2019330B5009930B600A830B7000F
:102AEC000130B80091317C219531A8308431F62425
:102AFC009531080022008C018D018E0133302100AC
:102B0C008C0070308D00F8308E00483023008E0021
:102B1C0070308D0010308C00A03024008D000730F8
:102B2C008C0087308E002100951725008C018D01BB
:102B3C008E01373026008C00F0308D00FF308E0077
:102B4C003F3027008C00F0308D00FF308E001310CA
:102B5C001210111403302100A6000030A700903190
:102B6C00AF2095318B150F303D00A00017303C0085
:102B7C00A40012303D009F000E309200080021008E
:102B8C00C000641CCA2DCB2DD32D4008BB003B08C4
:102B9C00B00038089331462395312100BA1BD72D4C
:102BAC00D82DDD2D3A08BF003908BE00DF2DBE013F
:102BBC00BF01BC01BD01F32D20302100A800003065
:102BCC00A9004008BB003B08AA009431FB249531B6
:102BDC0001302100BC070030BD3D3D08803ABB00F0
:102BEC003F08803A3B02031DFD2D3E083C02031CAE
:102BFC00002E012EE22D21006418052E062E0E2E1D
:102C0C004008BB003B08B00038089331462395318F
:102C1C0021003808A6000230A7009131DE21953141
:102C2C0021003E082607B8003F08273DB9000800E0
:102C3C002100AB002B08AA002A08AE002708AD0023
:102C4C002608AC000130A8020030A93B280A031D5D
:102C5C00332E290A031D332E342E432EA601A70131
:102C6C00792E0130AA002A08AE070130AC070030DB
:102C7C00AD3D0130A8020030A93B2E088600013082
:102C8C008700010803194B2E4C2E6B2E2C08840048
:102C9C002D08850012000319542E552E6B2E280872
:102CAC00290403195A2E5B2E6B2E2C0884002D0838
:102CBC0085000008AA002E08860001308700010854
:102CCC002A0603196A2E6B2E372E2E088600013029
:102CDC0087002C0884002D08850000080102A6003E
:102CEC00A701031CA70308000310720D730DF40059
:102CFC007408FA007A08031D842E852E8E2E00305F
:102D0C00F3000030F2000030F1000030F000ED2E46
:102D1C007008F4007108F5007208F6007308F700EB
:102D2C001F30F736F60CF50CF40C890B972E740843
:102D3C00F8007808F900F217FF30F005FF30F105C4
:102D4C00FF30F2050030F3059630FA02FA1FAF2E71
:102D5C00B02EC82E7A08803A973E0318B62EB72E9E
:102D6C00B82E852E0130F336F20CF10CF00C890BD9
:102D7C00B92E0130F4007408FA07031DC62EC72EB5
:102D8C00B82EDD2E20307A02031CCD2ECE2ED82E5E
:102D9C00852E0130F035F10DF20DF30D890BD02E8F
:102DAC000130FA027A08031DDC2EDD2ECF2E7908B5
:102DBC000319E12EE22EED2EF009F109F209F309C7
:102DCC00F00A0319F10A0319F20A0319F30A0800AD
:102DDC002200440820006A02E60022004508200078
:102DEC006B3BE7002200460820006C3BE800220009
:102DFC00470820006D3BE90069082100A300200072
:102E0C0068082100A200200067082100A100200012
:102E1C0066082100A00020006D082200C7002000D9
:102E2C006C082200C60020006B082200C5002000A0
:102E3C006A082200C40000302000A3000030A20069
:102E4C000030A100D230A00021002308F30022089A
:102E5C00F2002108F1002008F0000030F7000030EB
:102E6C00F6000B30F500B830F4009331F7239631AF
:102E7C0073082000A7007208A6007108A50070084E
:102E8C00A400883153209631200021082100E7004E
:102E9C00200020082100E600220051082000D2006A
:102EAC00220050082000D100210067082000D40027
:102EBC00210066082000D300C6308B31FE239631EA
:102ECC00200052082100A500200051082100A40078
:102EDC002508F5002408F40093311F2396310800CF
:102EEC0000307005F80000307105F9008030720573
:102EFC00FA007F307305FB007B087A0479047804B0
:102F0C00031D892F8A2F922F0030F3000030F2001E
:102F1C000030F1000030F00000307405F800003093
:102F2C007505F90080307605FA007F307705FB00D7
:102F3C007B087A0479047804031DA52FA62FAE2FE5
:102F4C000030F7000030F6000030F5000030F400DF
:102F5C00F31FB12FB22FCA2F0030F8000030F90048
:102F6C000030FA008030FB007008F8027108F93B61
:102F7C007208FA3B7308FB3B7B08F3007A08F200FB
:102F8C007908F1007808F000F71FCD2FCE2FE62F2F
:102F9C000030F8000030F9000030FA008030FB00FF
:102FAC007408F8027508F93B7608FA3B7708FB3B86
:102FBC007B08F7007A08F6007908F5007808F40029
:102FCC008030F3068030F70677087302031DF82F64
:102FDC0076087202031DF82F75087102031DF82F75
:102FEC00740870020318FB2FFC2FFE2F0310FF2F09
:102FFC0003140800203472344E344E344E342C34C6
:10300C0067344E344E344E342C3462344E344E3499
:10301C004E342C3477344E344E344E3420342D34DC
:10302C002034733465347434203473347034653420
:10303C00653464347334203430342D3431343034CA
:10304C00323433340A3400342034733474346134FD
:10305C00723474342C344E344E34203420342034B6
:10306C002D34203473347434613472347434203419
:10307C006D346F3474346F3472342C3420344E34D9
:10308C004E3420343D342034523450344D340A34D0
:10309C00003420346534783469347434203420346A
:1030AC00203420342034203420342D342034653422
:1030BC00783469347434203463346F346D346D3443
:1030CC0061346E34643420346D346F34643465345C
:1030DC000A3400344D346F3474346F3472345F34CA
:1030EC0053347434613472347434283429343A349B
:1030FC00203454346134723467346534743420347D
:10310C00523450344D3420343D342034253464341E
:10311C000A34003453347434613472347434693482
:10312C006E34673420346D346F3474346F347234CD
:10313C00203474346134723467346534743420341C
:10314C00253464342034523450344D340A34003431
:10315C002034683465346C3470342034203420349A
:10316C0020342034203420342D342034733468340B
:10317C006F347734203463346F346D346D34613490
:10318C006E34643473340A34003420346134523471
:10319C002C3447342C3442342C34573420342034DF
:1031AC0020342D3420347334653474342034613439
:1031BC006C346C342034503457344D3473340A34FA
:1031CC0000342034673465347434723470346D34A4
:1031DC00203420342034203420342D3420347234E4
:1031EC0065347434753472346E3473342034723400
:1031FC0070346D340A3400342034733474346F34C6
:10320C0070342034203420342034203420342034C2
:10321C002D342034733474346F34703420346D3462
:10322C006F3474346F3472340A34003466346C3452
:10323C0075347334683420346234753466346634CF
:10324C0065347234203472346534633465346934D3
:10325C007634653464340A340034203476342034C3
:10326C0020342034203420342034203420342034B2
:10327C0020342D342034763465347234733469340C
:10328C006F346E340A3400342034663420342034E5
:10329C002034203420342034203420342034203482
:1032AC002D34203466346C347534733468340A34F9
:1032BC00003455346E346B346E346F3477346E3472
:1032CC00203463346F346D346D3461346E34643453
:1032DC003A342034253473340A340034763431349F
:1032EC002E3430342E3430342034313431342D34C7
:1032FC00303431342D343234353400344D346F3471
:10330C0074346F3472342034723470346D343A3413
:10331C002034253464340A34003472346534633414
:10332C00653469347634653464343A342034253465
:10333C0073340A340034763465347234733469343B
:10334C006F346E3420343D342034253473340A34D5
:10335C0000344D346F3474346F3472345F345334FE
:10336C0074346F3470340A3400344D346F34743424
:10337C006F3472342034733474346F3470340A34D0
:10338C00003443346F346D346D3461346E346434D2
:10339C0073343A340A340034733474346134723410
:1033AC0074342C34003467346534743472347034AF
:1033BC006D340034683465346C34703400347334D8
:1033CC0074346F34703400340A342F343E34203467
:0233DC000034BB
:020000040001F9
:06000E00FC3FFF3E9F3F96
:00000001FF
